{
  "contractName": "CapabilityTokens",
  "abi": [
    {
      "constant": true,
      "inputs": [
        {
          "name": "domainAddress",
          "type": "bytes32"
        }
      ],
      "name": "getDomain",
      "outputs": [
        {
          "components": [
            {
              "name": "domainAddress",
              "type": "bytes32"
            },
            {
              "name": "coordinatorAddress",
              "type": "address"
            },
            {
              "name": "devicesAddresses",
              "type": "bytes32[]"
            },
            {
              "name": "userAddresses",
              "type": "address[]"
            },
            {
              "name": "isExistent",
              "type": "bool"
            }
          ],
          "name": "",
          "type": "tuple"
        }
      ],
      "payable": false,
      "stateMutability": "view",
      "type": "function",
      "signature": "0x1a242547"
    },
    {
      "constant": false,
      "inputs": [
        {
          "name": "coordinatorAddress",
          "type": "address"
        }
      ],
      "name": "createDomainWithCoordinator",
      "outputs": [],
      "payable": false,
      "stateMutability": "nonpayable",
      "type": "function",
      "signature": "0x294eb569"
    },
    {
      "constant": true,
      "inputs": [
        {
          "name": "",
          "type": "bytes32"
        }
      ],
      "name": "_domains",
      "outputs": [
        {
          "name": "domainAddress",
          "type": "bytes32"
        },
        {
          "name": "coordinatorAddress",
          "type": "address"
        },
        {
          "name": "isExistent",
          "type": "bool"
        }
      ],
      "payable": false,
      "stateMutability": "view",
      "type": "function",
      "signature": "0x31dd2392"
    },
    {
      "constant": false,
      "inputs": [
        {
          "name": "ipAddress",
          "type": "string"
        },
        {
          "name": "portNumber",
          "type": "uint16"
        },
        {
          "name": "domainAddress",
          "type": "bytes32"
        }
      ],
      "name": "addDeviceToDomain",
      "outputs": [],
      "payable": false,
      "stateMutability": "nonpayable",
      "type": "function",
      "signature": "0x535b3881"
    },
    {
      "constant": false,
      "inputs": [
        {
          "name": "adminAddress",
          "type": "address"
        }
      ],
      "name": "addAdmin",
      "outputs": [],
      "payable": false,
      "stateMutability": "nonpayable",
      "type": "function",
      "signature": "0x70480275"
    },
    {
      "constant": true,
      "inputs": [
        {
          "name": "domainAddress",
          "type": "bytes32"
        }
      ],
      "name": "getDomainUsersAddresses",
      "outputs": [
        {
          "name": "",
          "type": "address[]"
        }
      ],
      "payable": false,
      "stateMutability": "view",
      "type": "function",
      "signature": "0xa83af94f"
    },
    {
      "constant": false,
      "inputs": [
        {
          "name": "userAddress",
          "type": "address"
        },
        {
          "name": "domainAddress",
          "type": "bytes32"
        }
      ],
      "name": "addUserToDomain",
      "outputs": [],
      "payable": false,
      "stateMutability": "nonpayable",
      "type": "function",
      "signature": "0xccfbe0f3"
    },
    {
      "constant": true,
      "inputs": [
        {
          "name": "domainAddress",
          "type": "bytes32"
        }
      ],
      "name": "getDomainDevicesAddresses",
      "outputs": [
        {
          "name": "",
          "type": "bytes32[]"
        }
      ],
      "payable": false,
      "stateMutability": "view",
      "type": "function",
      "signature": "0xe5cb314d"
    },
    {
      "constant": true,
      "inputs": [
        {
          "name": "",
          "type": "bytes32"
        }
      ],
      "name": "_devices",
      "outputs": [
        {
          "name": "deviceAddress",
          "type": "bytes32"
        },
        {
          "name": "ipAddress",
          "type": "string"
        },
        {
          "name": "portNumber",
          "type": "uint16"
        },
        {
          "name": "domainAddress",
          "type": "bytes32"
        },
        {
          "name": "isExistent",
          "type": "bool"
        }
      ],
      "payable": false,
      "stateMutability": "view",
      "type": "function",
      "signature": "0xefda7026"
    },
    {
      "anonymous": false,
      "inputs": [
        {
          "indexed": false,
          "name": "capabilityTokenAddress",
          "type": "bytes32"
        }
      ],
      "name": "CapabilityTokenCreated",
      "type": "event",
      "signature": "0xdd2ae10937b0882a33adaad6f2aa5b4fc8a17b1aeb382129afecc80c35528e1f"
    },
    {
      "anonymous": false,
      "inputs": [
        {
          "indexed": false,
          "name": "capabilityTokenAddress",
          "type": "bytes32"
        }
      ],
      "name": "CapabilityTokenIssued",
      "type": "event",
      "signature": "0xc164f23f27ed2769ff9375c72bbfa9119a230ab031e04f08fbabe023db62872c"
    },
    {
      "anonymous": false,
      "inputs": [
        {
          "indexed": false,
          "name": "capabilityTokenAddress",
          "type": "bytes32"
        },
        {
          "indexed": false,
          "name": "privilegeIndex",
          "type": "uint256"
        }
      ],
      "name": "PrivilegeAddedToCapabilityToken",
      "type": "event",
      "signature": "0xaaf59c362fa1ab8abef16b711afeb8b0fb69b637e5b32dd21b39acb03dff52f3"
    },
    {
      "anonymous": false,
      "inputs": [
        {
          "indexed": false,
          "name": "deviceAddress",
          "type": "bytes32"
        },
        {
          "indexed": false,
          "name": "domainAddress",
          "type": "bytes32"
        }
      ],
      "name": "DeviceAddedToDomain",
      "type": "event",
      "signature": "0x00099e2c5383abc6c8301b8ec0e4a872db1aa80977f6e27cb5a1e91106aa5555"
    },
    {
      "anonymous": false,
      "inputs": [
        {
          "indexed": false,
          "name": "userAddress",
          "type": "address"
        },
        {
          "indexed": false,
          "name": "domainAddress",
          "type": "bytes32"
        }
      ],
      "name": "UserAddedToDomain",
      "type": "event",
      "signature": "0x0efc69f0c283f6c3145fb77fd70cbd4c730e1601abab02644f6c4caf7331230b"
    },
    {
      "anonymous": false,
      "inputs": [
        {
          "indexed": false,
          "name": "coordinatorAddress",
          "type": "address"
        },
        {
          "indexed": false,
          "name": "domainAddress",
          "type": "bytes32"
        }
      ],
      "name": "DomainCreated",
      "type": "event",
      "signature": "0x971a45439c53f47a2d64fee67b95ba678b17781bc1ba0eb9ba6fa7dd2a53ebd0"
    },
    {
      "constant": false,
      "inputs": [
        {
          "name": "capabilityTokenAddress",
          "type": "bytes32"
        },
        {
          "name": "httpAction",
          "type": "string"
        },
        {
          "name": "resourceUrlRegex",
          "type": "string"
        }
      ],
      "name": "addPrivilegeToCapabilityToken",
      "outputs": [],
      "payable": false,
      "stateMutability": "nonpayable",
      "type": "function",
      "signature": "0x843ae88a"
    },
    {
      "constant": false,
      "inputs": [
        {
          "name": "subjectAddress",
          "type": "address"
        },
        {
          "name": "objectAddress",
          "type": "bytes32"
        }
      ],
      "name": "createCapabilityToken",
      "outputs": [],
      "payable": false,
      "stateMutability": "nonpayable",
      "type": "function",
      "signature": "0x6f39dd87"
    },
    {
      "constant": false,
      "inputs": [
        {
          "name": "capabilityTokenAddress",
          "type": "bytes32"
        }
      ],
      "name": "issueCapabilityToken",
      "outputs": [],
      "payable": false,
      "stateMutability": "nonpayable",
      "type": "function",
      "signature": "0xa3a1e7ad"
    },
    {
      "constant": true,
      "inputs": [
        {
          "name": "capabilityTokenAddress",
          "type": "bytes32"
        }
      ],
      "name": "getCapabilityToken",
      "outputs": [
        {
          "components": [
            {
              "name": "tokenAddress",
              "type": "bytes32"
            },
            {
              "name": "issuerAddress",
              "type": "address"
            },
            {
              "name": "subjectAddress",
              "type": "address"
            },
            {
              "name": "objectAddress",
              "type": "bytes32"
            },
            {
              "name": "domainAddress",
              "type": "bytes32"
            },
            {
              "name": "issuedTime",
              "type": "uint256"
            },
            {
              "name": "expiredTime",
              "type": "uint256"
            },
            {
              "name": "isExistent",
              "type": "bool"
            },
            {
              "name": "isIssued",
              "type": "bool"
            },
            {
              "components": [
                {
                  "name": "httpAction",
                  "type": "string"
                },
                {
                  "name": "resourceUrlRegex",
                  "type": "string"
                }
              ],
              "name": "privileges",
              "type": "tuple[]"
            }
          ],
          "name": "",
          "type": "tuple"
        }
      ],
      "payable": false,
      "stateMutability": "view",
      "type": "function",
      "signature": "0xe1d14710"
    }
  ],
  "bytecode": "0x6080604052600060065560006007556000600855336000806101000a81548173ffffffffffffffffffffffffffffffffffffffff021916908373ffffffffffffffffffffffffffffffffffffffff16021790555033600160003373ffffffffffffffffffffffffffffffffffffffff1673ffffffffffffffffffffffffffffffffffffffff16815260200190815260200160002060000160006101000a81548173ffffffffffffffffffffffffffffffffffffffff021916908373ffffffffffffffffffffffffffffffffffffffff16021790555060018060003373ffffffffffffffffffffffffffffffffffffffff1673ffffffffffffffffffffffffffffffffffffffff16815260200190815260200160002060000160146101000a81548160ff021916908315150217905550612c638061013d6000396000f3fe608060405234801561001057600080fd5b50600436106100ec576000357c010000000000000000000000000000000000000000000000000000000090048063843ae88a116100a9578063ccfbe0f311610083578063ccfbe0f31461022b578063e1d1471014610247578063e5cb314d14610277578063efda7026146102a7576100ec565b8063843ae88a146101c3578063a3a1e7ad146101df578063a83af94f146101fb576100ec565b80631a242547146100f1578063294eb5691461012157806331dd23921461013d578063535b38811461016f5780636f39dd871461018b57806370480275146101a7575b600080fd5b61010b60048036036101069190810190611d1b565b6102db565b60405161011891906128f0565b60405180910390f35b61013b60048036036101369190810190611cb6565b610469565b005b61015760048036036101529190810190611d1b565b61069c565b60405161016693929190612729565b60405180910390f35b61018960048036036101849190810190611dc3565b6106f3565b005b6101a560048036036101a09190810190611cdf565b6108a8565b005b6101c160048036036101bc9190810190611cb6565b610b2c565b005b6101dd60048036036101d89190810190611d44565b610d06565b005b6101f960048036036101f49190810190611d1b565b610ec0565b005b61021560048036036102109190810190611d1b565b61100b565b60405161022291906126ca565b60405180910390f35b61024560048036036102409190810190611cdf565b6110af565b005b610261600480360361025c9190810190611d1b565b61149d565b60405161026e91906128ce565b60405180910390f35b610291600480360361028c9190810190611d1b565b611782565b60405161029e91906126ec565b60405180910390f35b6102c160048036036102bc9190810190611d1b565b6117f0565b6040516102d2959493929190612789565b60405180910390f35b6102e3611a28565b600560008381526020019081526020016000206040518060a0016040529081600082015481526020016001820160009054906101000a900473ffffffffffffffffffffffffffffffffffffffff1673ffffffffffffffffffffffffffffffffffffffff1673ffffffffffffffffffffffffffffffffffffffff168152602001600282018054806020026020016040519081016040528092919081815260200182805480156103b057602002820191906000526020600020905b81548152602001906001019080831161039c575b505050505081526020016003820180548060200260200160405190810160405280929190818152602001828054801561043e57602002820191906000526020600020905b8160009054906101000a900473ffffffffffffffffffffffffffffffffffffffff1673ffffffffffffffffffffffffffffffffffffffff16815260200190600101908083116103f4575b505050505081526020016004820160009054906101000a900460ff1615151515815250509050919050565b3360011515600160008373ffffffffffffffffffffffffffffffffffffffff1673ffffffffffffffffffffffffffffffffffffffff16815260200190815260200160002060000160149054906101000a900460ff161515146104ca57600080fd5b816000801515600260008473ffffffffffffffffffffffffffffffffffffffff1673ffffffffffffffffffffffffffffffffffffffff16815260200190815260200160002060020160009054906101000a900460ff1615151461052c57600080fd5b6000610537856118d9565b905084600260008773ffffffffffffffffffffffffffffffffffffffff1673ffffffffffffffffffffffffffffffffffffffff16815260200190815260200160002060000160006101000a81548173ffffffffffffffffffffffffffffffffffffffff021916908373ffffffffffffffffffffffffffffffffffffffff16021790555080600260008773ffffffffffffffffffffffffffffffffffffffff1673ffffffffffffffffffffffffffffffffffffffff168152602001908152602001600020600101819055506001600260008773ffffffffffffffffffffffffffffffffffffffff1673ffffffffffffffffffffffffffffffffffffffff16815260200190815260200160002060020160006101000a81548160ff0219169083151502179055507f971a45439c53f47a2d64fee67b95ba678b17781bc1ba0eb9ba6fa7dd2a53ebd0858260405161068d9291906126a1565b60405180910390a15050505050565b60056020528060005260406000206000915090508060000154908060010160009054906101000a900473ffffffffffffffffffffffffffffffffffffffff16908060040160009054906101000a900460ff16905083565b3360011515600160008373ffffffffffffffffffffffffffffffffffffffff1673ffffffffffffffffffffffffffffffffffffffff16815260200190815260200160002060000160149054906101000a900460ff1615151461075457600080fd5b6000600754428460405160200161076d93929190612664565b604051602081830303815290604052805190602001209050806004600083815260200190815260200160002060000181905550826004600083815260200190815260200160002060030181905550846004600083815260200190815260200160002060010190805190602001906107e5929190611a72565b50836004600083815260200190815260200160002060020160006101000a81548161ffff021916908361ffff160217905550600560008481526020019081526020016000206002018190806001815401808255809150509060018203906000526020600020016000909192909190915055506007600081548092919060010191905055507e099e2c5383abc6c8301b8ec0e4a872db1aa80977f6e27cb5a1e91106aa55558184604051610899929190612760565b60405180910390a15050505050565b3360011515600260008373ffffffffffffffffffffffffffffffffffffffff1673ffffffffffffffffffffffffffffffffffffffff16815260200190815260200160002060020160009054906101000a900460ff1615151461093f576040517f08c379a00000000000000000000000000000000000000000000000000000000081526004016109369061284e565b60405180910390fd5b60006008544285338660405160200161095c959493929190612605565b604051602081830303815290604052805190602001209050806009600083815260200190815260200160002060000181905550336009600083815260200190815260200160002060010160006101000a81548173ffffffffffffffffffffffffffffffffffffffff021916908373ffffffffffffffffffffffffffffffffffffffff160217905550836009600083815260200190815260200160002060020160006101000a81548173ffffffffffffffffffffffffffffffffffffffff021916908373ffffffffffffffffffffffffffffffffffffffff16021790555082600960008381526020019081526020016000206003018190555060046000848152602001908152602001600020600301546009600083815260200190815260200160002060040181905550426009600083815260200190815260200160002060050181905550620151804201600960008381526020019081526020016000206006018190555060016009600083815260200190815260200160002060070160006101000a81548160ff0219169083151502179055507fdd2ae10937b0882a33adaad6f2aa5b4fc8a17b1aeb382129afecc80c35528e1f81604051610b1e919061270e565b60405180910390a150505050565b3360011515600160008373ffffffffffffffffffffffffffffffffffffffff1673ffffffffffffffffffffffffffffffffffffffff16815260200190815260200160002060000160149054906101000a900460ff16151514610b8d57600080fd5b816000801515600160008473ffffffffffffffffffffffffffffffffffffffff1673ffffffffffffffffffffffffffffffffffffffff16815260200190815260200160002060000160149054906101000a900460ff16151514610c25576040517f08c379a0000000000000000000000000000000000000000000000000000000008152600401610c1c9061286e565b60405180910390fd5b83600160008673ffffffffffffffffffffffffffffffffffffffff1673ffffffffffffffffffffffffffffffffffffffff16815260200190815260200160002060000160006101000a81548173ffffffffffffffffffffffffffffffffffffffff021916908373ffffffffffffffffffffffffffffffffffffffff16021790555060018060008673ffffffffffffffffffffffffffffffffffffffff1673ffffffffffffffffffffffffffffffffffffffff16815260200190815260200160002060000160146101000a81548160ff02191690831515021790555050505050565b8260018015156009600084815260200190815260200160002060070160009054906101000a900460ff16151514610d72576040517f08c379a0000000000000000000000000000000000000000000000000000000008152600401610d699061282e565b60405180910390fd5b8460008015156009600084815260200190815260200160002060070160019054906101000a900460ff16151514610dde576040517f08c379a0000000000000000000000000000000000000000000000000000000008152600401610dd5906128ae565b60405180910390fd5b6000600960008981526020019081526020016000209050600060018260080160405180604001604052808b81526020018a815250908060018154018082558091505090600182039060005260206000209060020201600090919290919091506000820151816000019080519060200190610e59929190611af2565b506020820151816001019080519060200190610e76929190611af2565b5050500390507faaf59c362fa1ab8abef16b711afeb8b0fb69b637e5b32dd21b39acb03dff52f38982604051610ead9291906127e3565b60405180910390a1505050505050505050565b3360011515600260008373ffffffffffffffffffffffffffffffffffffffff1673ffffffffffffffffffffffffffffffffffffffff16815260200190815260200160002060020160009054906101000a900460ff16151514610f57576040517f08c379a0000000000000000000000000000000000000000000000000000000008152600401610f4e9061284e565b60405180910390fd5b6000600960008481526020019081526020016000209050600115158160070160009054906101000a900460ff16151514610f9057600080fd5b600015158160070160019054906101000a900460ff16151514610fb257600080fd5b60018160070160016101000a81548160ff0219169083151502179055507fc164f23f27ed2769ff9375c72bbfa9119a230ab031e04f08fbabe023db62872c83604051610ffe919061270e565b60405180910390a1505050565b6060600560008381526020019081526020016000206003018054806020026020016040519081016040528092919081815260200182805480156110a357602002820191906000526020600020905b8160009054906101000a900473ffffffffffffffffffffffffffffffffffffffff1673ffffffffffffffffffffffffffffffffffffffff1681526020019060010190808311611059575b50505050509050919050565b3360011515600160008373ffffffffffffffffffffffffffffffffffffffff1673ffffffffffffffffffffffffffffffffffffffff16815260200190815260200160002060000160149054906101000a900460ff1615151461111057600080fd5b826000801515600360008473ffffffffffffffffffffffffffffffffffffffff1673ffffffffffffffffffffffffffffffffffffffff16815260200190815260200160002060020160009054906101000a900460ff161515146111a8576040517f08c379a000000000000000000000000000000000000000000000000000000000815260040161119f9061288e565b60405180910390fd5b83600160606040518060400160405280600181526020017f2000000000000000000000000000000000000000000000000000000000000000815250905060011515821515141561122b576040518060400160405280600581526020017f206e6f742000000000000000000000000000000000000000000000000000000081525090505b60608160405160200161123e919061259b565b60405160208183030381529060405290508215156005600086815260200190815260200160002060040160009054906101000a900460ff1615151481906112bb576040517f08c379a00000000000000000000000000000000000000000000000000000000081526004016112b2919061280c565b60405180910390fd5b5088600360008b73ffffffffffffffffffffffffffffffffffffffff1673ffffffffffffffffffffffffffffffffffffffff16815260200190815260200160002060000160006101000a81548173ffffffffffffffffffffffffffffffffffffffff021916908373ffffffffffffffffffffffffffffffffffffffff16021790555087600360008b73ffffffffffffffffffffffffffffffffffffffff1673ffffffffffffffffffffffffffffffffffffffff168152602001908152602001600020600101819055506001600360008b73ffffffffffffffffffffffffffffffffffffffff1673ffffffffffffffffffffffffffffffffffffffff16815260200190815260200160002060020160006101000a81548160ff021916908315150217905550600560008981526020019081526020016000206003018990806001815401808255809150509060018203906000526020600020016000909192909190916101000a81548173ffffffffffffffffffffffffffffffffffffffff021916908373ffffffffffffffffffffffffffffffffffffffff160217905550507f0efc69f0c283f6c3145fb77fd70cbd4c730e1601abab02644f6c4caf7331230b898960405161148a9291906126a1565b60405180910390a1505050505050505050565b6114a5611b72565b6009600083815260200190815260200160002060405180610140016040529081600082015481526020016001820160009054906101000a900473ffffffffffffffffffffffffffffffffffffffff1673ffffffffffffffffffffffffffffffffffffffff1673ffffffffffffffffffffffffffffffffffffffff1681526020016002820160009054906101000a900473ffffffffffffffffffffffffffffffffffffffff1673ffffffffffffffffffffffffffffffffffffffff1673ffffffffffffffffffffffffffffffffffffffff168152602001600382015481526020016004820154815260200160058201548152602001600682015481526020016007820160009054906101000a900460ff161515151581526020016007820160019054906101000a900460ff1615151515815260200160088201805480602002602001604051908101604052809291908181526020016000905b828210156117735783829060005260206000209060020201604051806040016040529081600082018054600181600116156101000203166002900480601f0160208091040260200160405190810160405280929190818152602001828054600181600116156101000203166002900480156116b95780601f1061168e576101008083540402835291602001916116b9565b820191906000526020600020905b81548152906001019060200180831161169c57829003601f168201915b50505050508152602001600182018054600181600116156101000203166002900480601f01602080910402602001604051908101604052809291908181526020018280546001816001161561010002031660029004801561175b5780601f106117305761010080835404028352916020019161175b565b820191906000526020600020905b81548152906001019060200180831161173e57829003601f168201915b505050505081525050815260200190600101906115fd565b50505050815250509050919050565b6060600560008381526020019081526020016000206002018054806020026020016040519081016040528092919081815260200182805480156117e457602002820191906000526020600020905b8154815260200190600101908083116117d0575b50505050509050919050565b6004602052806000526040600020600091509050806000015490806001018054600181600116156101000203166002900480601f0160208091040260200160405190810160405280929190818152602001828054600181600116156101000203166002900480156118a25780601f10611877576101008083540402835291602001916118a2565b820191906000526020600020905b81548152906001019060200180831161188557829003601f168201915b5050505050908060020160009054906101000a900461ffff16908060030154908060040160009054906101000a900460ff16905085565b60003360011515600160008373ffffffffffffffffffffffffffffffffffffffff1673ffffffffffffffffffffffffffffffffffffffff16815260200190815260200160002060000160149054906101000a900460ff1615151461193c57600080fd5b60006006544285604051602001611955939291906125c8565b604051602081830303815290604052805190602001209050806005600083815260200190815260200160002060000181905550836005600083815260200190815260200160002060010160006101000a81548173ffffffffffffffffffffffffffffffffffffffff021916908373ffffffffffffffffffffffffffffffffffffffff16021790555060016005600083815260200190815260200160002060040160006101000a81548160ff0219169083151502179055506006600081548092919060010191905055508092505050919050565b6040518060a0016040528060008019168152602001600073ffffffffffffffffffffffffffffffffffffffff16815260200160608152602001606081526020016000151581525090565b828054600181600116156101000203166002900490600052602060002090601f016020900481019282601f10611ab357805160ff1916838001178555611ae1565b82800160010185558215611ae1579182015b82811115611ae0578251825591602001919060010190611ac5565b5b509050611aee9190611bfe565b5090565b828054600181600116156101000203166002900490600052602060002090601f016020900481019282601f10611b3357805160ff1916838001178555611b61565b82800160010185558215611b61579182015b82811115611b60578251825591602001919060010190611b45565b5b509050611b6e9190611bfe565b5090565b60405180610140016040528060008019168152602001600073ffffffffffffffffffffffffffffffffffffffff168152602001600073ffffffffffffffffffffffffffffffffffffffff16815260200160008019168152602001600080191681526020016000815260200160008152602001600015158152602001600015158152602001606081525090565b611c2091905b80821115611c1c576000816000905550600101611c04565b5090565b90565b600081359050611c3281612be4565b92915050565b600081359050611c4781612bfb565b92915050565b600082601f830112611c5e57600080fd5b8135611c71611c6c8261293f565b612912565b91508082526020830160208301858383011115611c8d57600080fd5b611c98838284612b2e565b50505092915050565b600081359050611cb081612c12565b92915050565b600060208284031215611cc857600080fd5b6000611cd684828501611c23565b91505092915050565b60008060408385031215611cf257600080fd5b6000611d0085828601611c23565b9250506020611d1185828601611c38565b9150509250929050565b600060208284031215611d2d57600080fd5b6000611d3b84828501611c38565b91505092915050565b600080600060608486031215611d5957600080fd5b6000611d6786828701611c38565b935050602084013567ffffffffffffffff811115611d8457600080fd5b611d9086828701611c4d565b925050604084013567ffffffffffffffff811115611dad57600080fd5b611db986828701611c4d565b9150509250925092565b600080600060608486031215611dd857600080fd5b600084013567ffffffffffffffff811115611df257600080fd5b611dfe86828701611c4d565b9350506020611e0f86828701611ca1565b9250506040611e2086828701611c38565b9150509250925092565b6000611e368383611e85565b60208301905092915050565b6000611e4e83836120c5565b60208301905092915050565b6000611e668383612513565b905092915050565b611e7f611e7a82612ace565b612b82565b82525050565b611e8e81612abc565b82525050565b611e9d81612abc565b82525050565b611eb4611eaf82612abc565b612b70565b82525050565b6000611ec5826129b7565b611ecf8185612a4b565b9350611eda83612978565b8060005b83811015611f0b578151611ef28882611e2a565b9750611efd83612a06565b925050600181019050611ede565b5085935050505092915050565b6000611f23826129ac565b611f2d8185612a3a565b9350611f388361296b565b8060005b83811015611f69578151611f508882611e2a565b9750611f5b836129f9565b925050600181019050611f3c565b5085935050505092915050565b6000611f81826129cd565b611f8b8185612a6d565b9350611f9683612992565b8060005b83811015611fc7578151611fae8882611e42565b9750611fb983612a20565b925050600181019050611f9a565b5085935050505092915050565b6000611fdf826129c2565b611fe98185612a5c565b9350611ff483612985565b8060005b8381101561202557815161200c8882611e42565b975061201783612a13565b925050600181019050611ff8565b5085935050505092915050565b600061203d826129d8565b6120478185612a7e565b9350836020820285016120598561299f565b8060005b8581101561209557848403895281516120768582611e5a565b945061208183612a2d565b925060208a0199505060018101905061205d565b50829750879550505050505092915050565b6120b081612ae0565b82525050565b6120bf81612ae0565b82525050565b6120ce81612aec565b82525050565b6120dd81612aec565b82525050565b6120f46120ef82612aec565b612b94565b82525050565b6000612105826129ee565b61210f8185612aa0565b935061211f818560208601612b3d565b61212881612bba565b840191505092915050565b600061213e826129ee565b6121488185612ab1565b9350612158818560208601612b3d565b80840191505092915050565b600061216f826129e3565b6121798185612a8f565b9350612189818560208601612b3d565b61219281612bba565b840191505092915050565b60006121a8826129e3565b6121b28185612aa0565b93506121c2818560208601612b3d565b6121cb81612bba565b840191505092915050565b60006121e3600683612ab1565b91507f65786973742e00000000000000000000000000000000000000000000000000006000830152600682019050919050565b6000612223600283612aa0565b91507f796f0000000000000000000000000000000000000000000000000000000000006000830152602082019050919050565b6000612263603283612aa0565b91507f5468652070726f76696465642061646472657373206973206e6f74206120636f60008301527f6f7264696e61746f7220616464726573732e00000000000000000000000000006020830152604082019050919050565b60006122c9600383612aa0565b91507f77616100000000000000000000000000000000000000000000000000000000006000830152602082019050919050565b6000612309600683612aa0565b91507f77616161616100000000000000000000000000000000000000000000000000006000830152602082019050919050565b6000612349600b83612ab1565b91507f446f6d61696e20646f65730000000000000000000000000000000000000000006000830152600b82019050919050565b6000612389600283612aa0565b91507f626f0000000000000000000000000000000000000000000000000000000000006000830152602082019050919050565b6000610140830160008301516123d560008601826120c5565b5060208301516123e86020860182611e85565b5060408301516123fb6040860182611e85565b50606083015161240e60608601826120c5565b50608083015161242160808601826120c5565b5060a083015161243460a0860182612566565b5060c083015161244760c0860182612566565b5060e083015161245a60e08601826120a7565b5061010083015161246f6101008601826120a7565b506101208301518482036101208601526124898282612032565b9150508091505092915050565b600060a0830160008301516124ae60008601826120c5565b5060208301516124c16020860182611e85565b50604083015184820360408601526124d98282611fd4565b915050606083015184820360608601526124f38282611f18565b915050608083015161250860808601826120a7565b508091505092915050565b600060408301600083015184820360008601526125308282612164565b9150506020830151848203602086015261254a8282612164565b9150508091505092915050565b61256081612af6565b82525050565b61256f81612b24565b82525050565b61257e81612b24565b82525050565b61259561259082612b24565b612bb0565b82525050565b60006125a68261233c565b91506125b28284612133565b91506125bd826121d6565b915081905092915050565b60006125d48286612584565b6020820191506125e48285612584565b6020820191506125f48284611ea3565b601482019150819050949350505050565b60006126118288612584565b6020820191506126218287612584565b6020820191506126318286611ea3565b6014820191506126418285611e6e565b60148201915061265182846120e3565b6020820191508190509695505050505050565b60006126708286612584565b6020820191506126808285612584565b60208201915061269082846120e3565b602082019150819050949350505050565b60006040820190506126b66000830185611e94565b6126c360208301846120d4565b9392505050565b600060208201905081810360008301526126e48184611eba565b905092915050565b600060208201905081810360008301526127068184611f76565b905092915050565b600060208201905061272360008301846120d4565b92915050565b600060608201905061273e60008301866120d4565b61274b6020830185611e94565b61275860408301846120b6565b949350505050565b600060408201905061277560008301856120d4565b61278260208301846120d4565b9392505050565b600060a08201905061279e60008301886120d4565b81810360208301526127b0818761219d565b90506127bf6040830186612557565b6127cc60608301856120d4565b6127d960808301846120b6565b9695505050505050565b60006040820190506127f860008301856120d4565b6128056020830184612575565b9392505050565b6000602082019050818103600083015261282681846120fa565b905092915050565b6000602082019050818103600083015261284781612216565b9050919050565b6000602082019050818103600083015261286781612256565b9050919050565b60006020820190508181036000830152612887816122bc565b9050919050565b600060208201905081810360008301526128a7816122fc565b9050919050565b600060208201905081810360008301526128c78161237c565b9050919050565b600060208201905081810360008301526128e881846123bc565b905092915050565b6000602082019050818103600083015261290a8184612496565b905092915050565b6000604051905081810181811067ffffffffffffffff8211171561293557600080fd5b8060405250919050565b600067ffffffffffffffff82111561295657600080fd5b601f19601f8301169050602081019050919050565b6000602082019050919050565b6000602082019050919050565b6000602082019050919050565b6000602082019050919050565b6000602082019050919050565b600081519050919050565b600081519050919050565b600081519050919050565b600081519050919050565b600081519050919050565b600081519050919050565b600081519050919050565b6000602082019050919050565b6000602082019050919050565b6000602082019050919050565b6000602082019050919050565b6000602082019050919050565b600082825260208201905092915050565b600082825260208201905092915050565b600082825260208201905092915050565b600082825260208201905092915050565b600082825260208201905092915050565b600082825260208201905092915050565b600082825260208201905092915050565b600081905092915050565b6000612ac782612b04565b9050919050565b6000612ad982612b04565b9050919050565b60008115159050919050565b6000819050919050565b600061ffff82169050919050565b600073ffffffffffffffffffffffffffffffffffffffff82169050919050565b6000819050919050565b82818337600083830152505050565b60005b83811015612b5b578082015181840152602081019050612b40565b83811115612b6a576000848401525b50505050565b6000612b7b82612b9e565b9050919050565b6000612b8d82612b9e565b9050919050565b6000819050919050565b6000612ba982612bcb565b9050919050565b6000819050919050565b6000601f19601f8301169050919050565b60006c0100000000000000000000000082029050919050565b612bed81612abc565b8114612bf857600080fd5b50565b612c0481612aec565b8114612c0f57600080fd5b50565b612c1b81612af6565b8114612c2657600080fd5b5056fea265627a7a72305820c729dfe856625d705d7e2779c5cb6d74886f35ca65c7327a9ab4d9298b645cfc6c6578706572696d656e74616cf50037",
  "source": "pragma solidity 0.5.8;\npragma experimental ABIEncoderV2;\n\nimport \"./Domains.sol\";\n\n\ncontract CapabilityTokens is Domains {\n\n    uint constant private CAPABILITY_TOKEN_EXPIRATION_TIME = 1 days;\n    uint private _capabilityTokensNonce = 0;\n\n    mapping (bytes32 => CapabilityToken) private _capabilityTokens;\n\n    event CapabilityTokenCreated(bytes32 capabilityTokenAddress);\n    event CapabilityTokenIssued(bytes32 capabilityTokenAddress);\n    event PrivilegeAddedToCapabilityToken(bytes32 capabilityTokenAddress, uint privilegeIndex);\n\n    modifier isCapabilityTokenExistent(bytes32 capabilityTokenAddress, bool exists) {\n        require(_capabilityTokens[capabilityTokenAddress].isExistent == exists, 'yo');\n        _;\n    }\n\n    modifier isCapabilityTokenIssued(bytes32 capabilityTokenAddress, bool issued) {\n        require(_capabilityTokens[capabilityTokenAddress].isIssued == issued, 'bo');\n        _;\n    }\n\n    struct CapabilityToken {\n        bytes32 tokenAddress;\n        address issuerAddress;\n        address subjectAddress;\n        bytes32 objectAddress;\n        bytes32 domainAddress;\n        uint issuedTime;\n        uint expiredTime;\n        bool isExistent;\n        bool isIssued;\n        Privilege[] privileges;\n    }\n\n    struct Privilege {\n        string httpAction;\n        string resourceUrlRegex;\n    }\n\n    function addPrivilegeToCapabilityToken(\n        bytes32 capabilityTokenAddress,\n        string memory httpAction,\n        string memory resourceUrlRegex\n        )\n        public\n        isCapabilityTokenExistent(capabilityTokenAddress, true)\n        isCapabilityTokenIssued(capabilityTokenAddress, false) {\n        CapabilityToken storage capabilityToken = _capabilityTokens[capabilityTokenAddress];\n        uint privilegeIndex = capabilityToken.privileges.push(Privilege(httpAction, resourceUrlRegex)) - 1;\n        emit PrivilegeAddedToCapabilityToken(capabilityTokenAddress, privilegeIndex);\n    }\n\n    function createCapabilityToken(\n        address subjectAddress,\n        bytes32 objectAddress\n        )\n        public\n        onlyCoordinator(msg.sender) {\n            bytes32 capabilityTokenAddress = keccak256(abi.encodePacked(_capabilityTokensNonce, now, subjectAddress, msg.sender, objectAddress));\n            _capabilityTokens[capabilityTokenAddress].tokenAddress = capabilityTokenAddress;\n            _capabilityTokens[capabilityTokenAddress].issuerAddress = msg.sender;\n            _capabilityTokens[capabilityTokenAddress].subjectAddress = subjectAddress;\n            _capabilityTokens[capabilityTokenAddress].objectAddress = objectAddress;\n            _capabilityTokens[capabilityTokenAddress].domainAddress = _devices[objectAddress].domainAddress;\n            _capabilityTokens[capabilityTokenAddress].issuedTime = now;\n            _capabilityTokens[capabilityTokenAddress].expiredTime = now + CAPABILITY_TOKEN_EXPIRATION_TIME;\n            _capabilityTokens[capabilityTokenAddress].isExistent = true;\n            emit CapabilityTokenCreated(capabilityTokenAddress);\n        }\n\n    function issueCapabilityToken(bytes32 capabilityTokenAddress) public onlyCoordinator(msg.sender) {\n        CapabilityToken storage capabilityToken = _capabilityTokens[capabilityTokenAddress];\n        require(capabilityToken.isExistent == true);\n        require(capabilityToken.isIssued == false);\n        capabilityToken.isIssued = true;\n        emit CapabilityTokenIssued(capabilityTokenAddress);\n    }\n\n    function getCapabilityToken(bytes32 capabilityTokenAddress) public view returns (CapabilityToken memory) {\n        return _capabilityTokens[capabilityTokenAddress];\n    }\n\n}\n",
  "sourcePath": "/home/ayedm/WebstormProjects/BlendCAC/eth/dapp/contracts/CapabilityTokens.sol",
  "compiler": {
    "name": "solc",
    "version": "0.5.8+commit.23d335f2.Emscripten.clang"
  },
  "schemaVersion": "3.0.2",
  "updatedAt": "2019-08-02T09:30:47.395Z",
  "devdoc": {
    "methods": {}
  },
  "userdoc": {
    "methods": {}
  }
}