{
  "contractName": "Domains",
  "abi": [
    {
      "constant": true,
      "inputs": [
        {
          "name": "",
          "type": "bytes32"
        }
      ],
      "name": "_domains",
      "outputs": [
        {
          "name": "domainAddress",
          "type": "bytes32"
        },
        {
          "name": "coordinatorAddress",
          "type": "address"
        },
        {
          "name": "isExistent",
          "type": "bool"
        }
      ],
      "payable": false,
      "stateMutability": "view",
      "type": "function"
    },
    {
      "constant": false,
      "inputs": [
        {
          "name": "adminAddress",
          "type": "address"
        }
      ],
      "name": "addAdmin",
      "outputs": [],
      "payable": false,
      "stateMutability": "nonpayable",
      "type": "function"
    },
    {
      "constant": true,
      "inputs": [
        {
          "name": "",
          "type": "bytes32"
        }
      ],
      "name": "_devices",
      "outputs": [
        {
          "name": "deviceAddress",
          "type": "bytes32"
        },
        {
          "name": "ipAddress",
          "type": "string"
        },
        {
          "name": "portNumber",
          "type": "uint16"
        },
        {
          "name": "domainAddress",
          "type": "bytes32"
        },
        {
          "name": "isExistent",
          "type": "bool"
        }
      ],
      "payable": false,
      "stateMutability": "view",
      "type": "function"
    },
    {
      "anonymous": false,
      "inputs": [
        {
          "indexed": false,
          "name": "deviceAddress",
          "type": "bytes32"
        },
        {
          "indexed": false,
          "name": "domainAddress",
          "type": "bytes32"
        }
      ],
      "name": "DeviceAddedToDomain",
      "type": "event"
    },
    {
      "anonymous": false,
      "inputs": [
        {
          "indexed": false,
          "name": "userAddress",
          "type": "address"
        },
        {
          "indexed": false,
          "name": "domainAddress",
          "type": "bytes32"
        }
      ],
      "name": "UserAddedToDomain",
      "type": "event"
    },
    {
      "anonymous": false,
      "inputs": [
        {
          "indexed": false,
          "name": "coordinatorAddress",
          "type": "address"
        },
        {
          "indexed": false,
          "name": "domainAddress",
          "type": "bytes32"
        }
      ],
      "name": "DomainCreated",
      "type": "event"
    },
    {
      "constant": true,
      "inputs": [
        {
          "name": "domainAddress",
          "type": "bytes32"
        }
      ],
      "name": "getDomain",
      "outputs": [
        {
          "components": [
            {
              "name": "domainAddress",
              "type": "bytes32"
            },
            {
              "name": "coordinatorAddress",
              "type": "address"
            },
            {
              "name": "devicesAddresses",
              "type": "bytes32[]"
            },
            {
              "name": "userAddresses",
              "type": "address[]"
            },
            {
              "name": "isExistent",
              "type": "bool"
            }
          ],
          "name": "",
          "type": "tuple"
        }
      ],
      "payable": false,
      "stateMutability": "view",
      "type": "function"
    },
    {
      "constant": true,
      "inputs": [
        {
          "name": "domainAddress",
          "type": "bytes32"
        }
      ],
      "name": "getDomainDevicesAddresses",
      "outputs": [
        {
          "name": "",
          "type": "bytes32[]"
        }
      ],
      "payable": false,
      "stateMutability": "view",
      "type": "function"
    },
    {
      "constant": true,
      "inputs": [
        {
          "name": "domainAddress",
          "type": "bytes32"
        }
      ],
      "name": "getDomainUsersAddresses",
      "outputs": [
        {
          "name": "",
          "type": "address[]"
        }
      ],
      "payable": false,
      "stateMutability": "view",
      "type": "function"
    },
    {
      "constant": false,
      "inputs": [
        {
          "name": "coordinatorAddress",
          "type": "address"
        }
      ],
      "name": "createDomainWithCoordinator",
      "outputs": [],
      "payable": false,
      "stateMutability": "nonpayable",
      "type": "function"
    },
    {
      "constant": false,
      "inputs": [
        {
          "name": "userAddress",
          "type": "address"
        },
        {
          "name": "domainAddress",
          "type": "bytes32"
        }
      ],
      "name": "addUserToDomain",
      "outputs": [],
      "payable": false,
      "stateMutability": "nonpayable",
      "type": "function"
    },
    {
      "constant": false,
      "inputs": [
        {
          "name": "ipAddress",
          "type": "string"
        },
        {
          "name": "portNumber",
          "type": "uint16"
        },
        {
          "name": "domainAddress",
          "type": "bytes32"
        }
      ],
      "name": "addDeviceToDomain",
      "outputs": [],
      "payable": false,
      "stateMutability": "nonpayable",
      "type": "function"
    }
  ],
  "bytecode": "0x608060405260006006556000600755336000806101000a81548173ffffffffffffffffffffffffffffffffffffffff021916908373ffffffffffffffffffffffffffffffffffffffff16021790555033600160003373ffffffffffffffffffffffffffffffffffffffff1673ffffffffffffffffffffffffffffffffffffffff16815260200190815260200160002060000160006101000a81548173ffffffffffffffffffffffffffffffffffffffff021916908373ffffffffffffffffffffffffffffffffffffffff16021790555060018060003373ffffffffffffffffffffffffffffffffffffffff1673ffffffffffffffffffffffffffffffffffffffff16815260200190815260200160002060000160146101000a81548160ff021916908315150217905550611d1f806101386000396000f3fe608060405234801561001057600080fd5b50600436106100b0576000357c0100000000000000000000000000000000000000000000000000000000900480637048027511610083578063704802751461014f578063a83af94f1461016b578063ccfbe0f31461019b578063e5cb314d146101b7578063efda7026146101e7576100b0565b80631a242547146100b5578063294eb569146100e557806331dd239214610101578063535b388114610133575b600080fd5b6100cf60048036036100ca91908101906112e1565b61021b565b6040516100dc9190611a17565b60405180910390f35b6100ff60048036036100fa919081019061127c565b6103a9565b005b61011b600480360361011691908101906112e1565b6105dc565b60405161012a939291906118fb565b60405180910390f35b61014d6004803603610148919081019061130a565b610633565b005b6101696004803603610164919081019061127c565b6107e8565b005b610185600480360361018091908101906112e1565b6109c2565b60405161019291906118b7565b60405180910390f35b6101b560048036036101b091908101906112a5565b610a66565b005b6101d160048036036101cc91908101906112e1565b610e54565b6040516101de91906118d9565b60405180910390f35b61020160048036036101fc91908101906112e1565b610ec2565b60405161021295949392919061195b565b60405180910390f35b6102236110fa565b600560008381526020019081526020016000206040518060a0016040529081600082015481526020016001820160009054906101000a900473ffffffffffffffffffffffffffffffffffffffff1673ffffffffffffffffffffffffffffffffffffffff1673ffffffffffffffffffffffffffffffffffffffff168152602001600282018054806020026020016040519081016040528092919081815260200182805480156102f057602002820191906000526020600020905b8154815260200190600101908083116102dc575b505050505081526020016003820180548060200260200160405190810160405280929190818152602001828054801561037e57602002820191906000526020600020905b8160009054906101000a900473ffffffffffffffffffffffffffffffffffffffff1673ffffffffffffffffffffffffffffffffffffffff1681526020019060010190808311610334575b505050505081526020016004820160009054906101000a900460ff1615151515815250509050919050565b3360011515600160008373ffffffffffffffffffffffffffffffffffffffff1673ffffffffffffffffffffffffffffffffffffffff16815260200190815260200160002060000160149054906101000a900460ff1615151461040a57600080fd5b816000801515600260008473ffffffffffffffffffffffffffffffffffffffff1673ffffffffffffffffffffffffffffffffffffffff16815260200190815260200160002060020160009054906101000a900460ff1615151461046c57600080fd5b600061047785610fab565b905084600260008773ffffffffffffffffffffffffffffffffffffffff1673ffffffffffffffffffffffffffffffffffffffff16815260200190815260200160002060000160006101000a81548173ffffffffffffffffffffffffffffffffffffffff021916908373ffffffffffffffffffffffffffffffffffffffff16021790555080600260008773ffffffffffffffffffffffffffffffffffffffff1673ffffffffffffffffffffffffffffffffffffffff168152602001908152602001600020600101819055506001600260008773ffffffffffffffffffffffffffffffffffffffff1673ffffffffffffffffffffffffffffffffffffffff16815260200190815260200160002060020160006101000a81548160ff0219169083151502179055507f971a45439c53f47a2d64fee67b95ba678b17781bc1ba0eb9ba6fa7dd2a53ebd085826040516105cd92919061188e565b60405180910390a15050505050565b60056020528060005260406000206000915090508060000154908060010160009054906101000a900473ffffffffffffffffffffffffffffffffffffffff16908060040160009054906101000a900460ff16905083565b3360011515600160008373ffffffffffffffffffffffffffffffffffffffff1673ffffffffffffffffffffffffffffffffffffffff16815260200190815260200160002060000160149054906101000a900460ff1615151461069457600080fd5b600060075442846040516020016106ad93929190611851565b60405160208183030381529060405280519060200120905080600460008381526020019081526020016000206000018190555082600460008381526020019081526020016000206003018190555084600460008381526020019081526020016000206001019080519060200190610725929190611144565b50836004600083815260200190815260200160002060020160006101000a81548161ffff021916908361ffff160217905550600560008481526020019081526020016000206002018190806001815401808255809150509060018203906000526020600020016000909192909190915055506007600081548092919060010191905055507e099e2c5383abc6c8301b8ec0e4a872db1aa80977f6e27cb5a1e91106aa555581846040516107d9929190611932565b60405180910390a15050505050565b3360011515600160008373ffffffffffffffffffffffffffffffffffffffff1673ffffffffffffffffffffffffffffffffffffffff16815260200190815260200160002060000160149054906101000a900460ff1615151461084957600080fd5b816000801515600160008473ffffffffffffffffffffffffffffffffffffffff1673ffffffffffffffffffffffffffffffffffffffff16815260200190815260200160002060000160149054906101000a900460ff161515146108e1576040517f08c379a00000000000000000000000000000000000000000000000000000000081526004016108d8906119d7565b60405180910390fd5b83600160008673ffffffffffffffffffffffffffffffffffffffff1673ffffffffffffffffffffffffffffffffffffffff16815260200190815260200160002060000160006101000a81548173ffffffffffffffffffffffffffffffffffffffff021916908373ffffffffffffffffffffffffffffffffffffffff16021790555060018060008673ffffffffffffffffffffffffffffffffffffffff1673ffffffffffffffffffffffffffffffffffffffff16815260200190815260200160002060000160146101000a81548160ff02191690831515021790555050505050565b606060056000838152602001908152602001600020600301805480602002602001604051908101604052809291908181526020018280548015610a5a57602002820191906000526020600020905b8160009054906101000a900473ffffffffffffffffffffffffffffffffffffffff1673ffffffffffffffffffffffffffffffffffffffff1681526020019060010190808311610a10575b50505050509050919050565b3360011515600160008373ffffffffffffffffffffffffffffffffffffffff1673ffffffffffffffffffffffffffffffffffffffff16815260200190815260200160002060000160149054906101000a900460ff16151514610ac757600080fd5b826000801515600360008473ffffffffffffffffffffffffffffffffffffffff1673ffffffffffffffffffffffffffffffffffffffff16815260200190815260200160002060020160009054906101000a900460ff16151514610b5f576040517f08c379a0000000000000000000000000000000000000000000000000000000008152600401610b56906119f7565b60405180910390fd5b83600160606040518060400160405280600181526020017f20000000000000000000000000000000000000000000000000000000000000008152509050600115158215151415610be2576040518060400160405280600581526020017f206e6f742000000000000000000000000000000000000000000000000000000081525090505b606081604051602001610bf591906117e7565b60405160208183030381529060405290508215156005600086815260200190815260200160002060040160009054906101000a900460ff161515148190610c72576040517f08c379a0000000000000000000000000000000000000000000000000000000008152600401610c6991906119b5565b60405180910390fd5b5088600360008b73ffffffffffffffffffffffffffffffffffffffff1673ffffffffffffffffffffffffffffffffffffffff16815260200190815260200160002060000160006101000a81548173ffffffffffffffffffffffffffffffffffffffff021916908373ffffffffffffffffffffffffffffffffffffffff16021790555087600360008b73ffffffffffffffffffffffffffffffffffffffff1673ffffffffffffffffffffffffffffffffffffffff168152602001908152602001600020600101819055506001600360008b73ffffffffffffffffffffffffffffffffffffffff1673ffffffffffffffffffffffffffffffffffffffff16815260200190815260200160002060020160006101000a81548160ff021916908315150217905550600560008981526020019081526020016000206003018990806001815401808255809150509060018203906000526020600020016000909192909190916101000a81548173ffffffffffffffffffffffffffffffffffffffff021916908373ffffffffffffffffffffffffffffffffffffffff160217905550507f0efc69f0c283f6c3145fb77fd70cbd4c730e1601abab02644f6c4caf7331230b8989604051610e4192919061188e565b60405180910390a1505050505050505050565b606060056000838152602001908152602001600020600201805480602002602001604051908101604052809291908181526020018280548015610eb657602002820191906000526020600020905b815481526020019060010190808311610ea2575b50505050509050919050565b6004602052806000526040600020600091509050806000015490806001018054600181600116156101000203166002900480601f016020809104026020016040519081016040528092919081815260200182805460018160011615610100020316600290048015610f745780601f10610f4957610100808354040283529160200191610f74565b820191906000526020600020905b815481529060010190602001808311610f5757829003601f168201915b5050505050908060020160009054906101000a900461ffff16908060030154908060040160009054906101000a900460ff16905085565b60003360011515600160008373ffffffffffffffffffffffffffffffffffffffff1673ffffffffffffffffffffffffffffffffffffffff16815260200190815260200160002060000160149054906101000a900460ff1615151461100e57600080fd5b6000600654428560405160200161102793929190611814565b604051602081830303815290604052805190602001209050806005600083815260200190815260200160002060000181905550836005600083815260200190815260200160002060010160006101000a81548173ffffffffffffffffffffffffffffffffffffffff021916908373ffffffffffffffffffffffffffffffffffffffff16021790555060016005600083815260200190815260200160002060040160006101000a81548160ff0219169083151502179055506006600081548092919060010191905055508092505050919050565b6040518060a0016040528060008019168152602001600073ffffffffffffffffffffffffffffffffffffffff16815260200160608152602001606081526020016000151581525090565b828054600181600116156101000203166002900490600052602060002090601f016020900481019282601f1061118557805160ff19168380011785556111b3565b828001600101855582156111b3579182015b828111156111b2578251825591602001919060010190611197565b5b5090506111c091906111c4565b5090565b6111e691905b808211156111e25760008160009055506001016111ca565b5090565b90565b6000813590506111f881611ca0565b92915050565b60008135905061120d81611cb7565b92915050565b600082601f83011261122457600080fd5b813561123761123282611a66565b611a39565b9150808252602083016020830185838301111561125357600080fd5b61125e838284611bfc565b50505092915050565b60008135905061127681611cce565b92915050565b60006020828403121561128e57600080fd5b600061129c848285016111e9565b91505092915050565b600080604083850312156112b857600080fd5b60006112c6858286016111e9565b92505060206112d7858286016111fe565b9150509250929050565b6000602082840312156112f357600080fd5b6000611301848285016111fe565b91505092915050565b60008060006060848603121561131f57600080fd5b600084013567ffffffffffffffff81111561133957600080fd5b61134586828701611213565b935050602061135686828701611267565b9250506040611367868287016111fe565b9150509250925092565b600061137d83836113a1565b60208301905092915050565b6000611395838361156c565b60208301905092915050565b6113aa81611b9c565b82525050565b6113b981611b9c565b82525050565b6113d06113cb82611b9c565b611c3e565b82525050565b60006113e182611ad1565b6113eb8185611b4d565b93506113f683611a9f565b8060005b8381101561142757815161140e8882611371565b975061141983611b15565b9250506001810190506113fa565b5085935050505092915050565b600061143f82611ac6565b6114498185611b3c565b935061145483611a92565b8060005b8381101561148557815161146c8882611371565b975061147783611b08565b925050600181019050611458565b5085935050505092915050565b600061149d82611ae7565b6114a78185611b6f565b93506114b283611ab9565b8060005b838110156114e35781516114ca8882611389565b97506114d583611b2f565b9250506001810190506114b6565b5085935050505092915050565b60006114fb82611adc565b6115058185611b5e565b935061151083611aac565b8060005b838110156115415781516115288882611389565b975061153383611b22565b925050600181019050611514565b5085935050505092915050565b61155781611bae565b82525050565b61156681611bae565b82525050565b61157581611bba565b82525050565b61158481611bba565b82525050565b61159b61159682611bba565b611c50565b82525050565b60006115ac82611afd565b6115b68185611b80565b93506115c6818560208601611c0b565b6115cf81611c76565b840191505092915050565b60006115e582611afd565b6115ef8185611b91565b93506115ff818560208601611c0b565b80840191505092915050565b600061161682611af2565b6116208185611b80565b9350611630818560208601611c0b565b61163981611c76565b840191505092915050565b6000611651600683611b91565b91507f65786973742e00000000000000000000000000000000000000000000000000006000830152600682019050919050565b6000611691600383611b80565b91507f77616100000000000000000000000000000000000000000000000000000000006000830152602082019050919050565b60006116d1600683611b80565b91507f77616161616100000000000000000000000000000000000000000000000000006000830152602082019050919050565b6000611711600b83611b91565b91507f446f6d61696e20646f65730000000000000000000000000000000000000000006000830152600b82019050919050565b600060a08301600083015161175c600086018261156c565b50602083015161176f60208601826113a1565b506040830151848203604086015261178782826114f0565b915050606083015184820360608601526117a18282611434565b91505060808301516117b6608086018261154e565b508091505092915050565b6117ca81611bc4565b82525050565b6117e16117dc82611bf2565b611c6c565b82525050565b60006117f282611704565b91506117fe82846115da565b915061180982611644565b915081905092915050565b600061182082866117d0565b60208201915061183082856117d0565b60208201915061184082846113bf565b601482019150819050949350505050565b600061185d82866117d0565b60208201915061186d82856117d0565b60208201915061187d828461158a565b602082019150819050949350505050565b60006040820190506118a360008301856113b0565b6118b0602083018461157b565b9392505050565b600060208201905081810360008301526118d181846113d6565b905092915050565b600060208201905081810360008301526118f38184611492565b905092915050565b6000606082019050611910600083018661157b565b61191d60208301856113b0565b61192a604083018461155d565b949350505050565b6000604082019050611947600083018561157b565b611954602083018461157b565b9392505050565b600060a082019050611970600083018861157b565b8181036020830152611982818761160b565b905061199160408301866117c1565b61199e606083018561157b565b6119ab608083018461155d565b9695505050505050565b600060208201905081810360008301526119cf81846115a1565b905092915050565b600060208201905081810360008301526119f081611684565b9050919050565b60006020820190508181036000830152611a10816116c4565b9050919050565b60006020820190508181036000830152611a318184611744565b905092915050565b6000604051905081810181811067ffffffffffffffff82111715611a5c57600080fd5b8060405250919050565b600067ffffffffffffffff821115611a7d57600080fd5b601f19601f8301169050602081019050919050565b6000602082019050919050565b6000602082019050919050565b6000602082019050919050565b6000602082019050919050565b600081519050919050565b600081519050919050565b600081519050919050565b600081519050919050565b600081519050919050565b600081519050919050565b6000602082019050919050565b6000602082019050919050565b6000602082019050919050565b6000602082019050919050565b600082825260208201905092915050565b600082825260208201905092915050565b600082825260208201905092915050565b600082825260208201905092915050565b600082825260208201905092915050565b600081905092915050565b6000611ba782611bd2565b9050919050565b60008115159050919050565b6000819050919050565b600061ffff82169050919050565b600073ffffffffffffffffffffffffffffffffffffffff82169050919050565b6000819050919050565b82818337600083830152505050565b60005b83811015611c29578082015181840152602081019050611c0e565b83811115611c38576000848401525b50505050565b6000611c4982611c5a565b9050919050565b6000819050919050565b6000611c6582611c87565b9050919050565b6000819050919050565b6000601f19601f8301169050919050565b60006c0100000000000000000000000082029050919050565b611ca981611b9c565b8114611cb457600080fd5b50565b611cc081611bba565b8114611ccb57600080fd5b50565b611cd781611bc4565b8114611ce257600080fd5b5056fea265627a7a72305820497b4ab907982031be595d654b70df8a56d64d56b836692b6d106ee39fb2dfb56c6578706572696d656e74616cf50037",
  "source": "pragma solidity 0.5.8;\npragma experimental ABIEncoderV2;\n\nimport \"./Users.sol\";\n\n\ncontract Domains is Users {\n\n    mapping (bytes32 => Device) public _devices;\n    mapping (bytes32 => Domain) public _domains;\n\n    uint private _domainsNonce = 0;\n    uint private _deviceNonce = 0;\n\n    event DeviceAddedToDomain(bytes32 deviceAddress, bytes32 domainAddress);\n    event UserAddedToDomain(address userAddress, bytes32 domainAddress);\n    event DomainCreated(address coordinatorAddress, bytes32 domainAddress);\n\n    modifier onlyDomainCoordinator(bytes32 domainAddress, address domainCoordinatorAddress) {\n        require(_domains[domainAddress].coordinatorAddress == domainCoordinatorAddress, 'Address does not correspond to the Domain Coordinator Address.');\n        _;\n    }\n\n    modifier isDomainExistent(bytes32 domainAddress, bool exists) {\n        string memory not = ' ';\n        if (exists == true) {\n          not = ' not ';\n        }\n        string memory errorMessage = string(abi.encodePacked('Domain does', not, 'exist.'));\n        require(_domains[domainAddress].isExistent == exists, errorMessage);\n        _;\n    }\n\n    struct Domain {\n        bytes32 domainAddress;\n        address coordinatorAddress;\n        bytes32[] devicesAddresses;\n        address[] userAddresses;\n        bool isExistent;\n    }\n\n    struct Device {\n        bytes32 deviceAddress;\n        string ipAddress;\n        uint16 portNumber;\n        bytes32 domainAddress;\n        bool isExistent;\n    }\n\n    function getDomain(bytes32 domainAddress) public view returns (Domain memory) {\n        return _domains[domainAddress];\n    }\n\n    function getDomainDevicesAddresses(bytes32 domainAddress) public view returns (bytes32[] memory) {\n        return _domains[domainAddress].devicesAddresses;\n    }\n\n    function getDomainUsersAddresses(bytes32 domainAddress) public view returns (address[] memory) {\n        return _domains[domainAddress].userAddresses;\n    }\n\n    function createDomain(address coordinatorAddress) internal onlyAdmin(msg.sender) returns (bytes32) {\n        bytes32 domainAddress = keccak256(abi.encodePacked(_domainsNonce, now, coordinatorAddress));\n        _domains[domainAddress].domainAddress = domainAddress;\n        _domains[domainAddress].coordinatorAddress = coordinatorAddress;\n        _domains[domainAddress].isExistent = true;\n        _domainsNonce++;\n        return domainAddress;\n    }\n\n    function createDomainWithCoordinator(address coordinatorAddress) external onlyAdmin(msg.sender) isCoordinatorExistent(coordinatorAddress, false) {\n        bytes32 domainAddress = createDomain(coordinatorAddress);\n        _coordinators[coordinatorAddress].coordinatorAddress = coordinatorAddress;\n        _coordinators[coordinatorAddress].domainAddress = domainAddress;\n        _coordinators[coordinatorAddress].isExistent = true;\n        emit DomainCreated(coordinatorAddress, domainAddress);\n    }\n\n    function addUserToDomain(\n        address userAddress,\n        bytes32 domainAddress\n        )\n        public\n        onlyAdmin(msg.sender)\n        isUserExistent(userAddress, false)\n        isDomainExistent(domainAddress, true) {\n        _users[userAddress].userAddress = userAddress;\n        _users[userAddress].domainAddress = domainAddress;\n        _users[userAddress].isExistent = true;\n        _domains[domainAddress].userAddresses.push(userAddress);\n        emit UserAddedToDomain(userAddress, domainAddress);\n    }\n\n    function addDeviceToDomain(string memory ipAddress, uint16 portNumber, bytes32 domainAddress)\n        public onlyAdmin(msg.sender) {\n            bytes32 deviceAddress = keccak256(abi.encodePacked(_deviceNonce, now, domainAddress));\n            _devices[deviceAddress].deviceAddress = deviceAddress;\n            _devices[deviceAddress].domainAddress = domainAddress;\n            _devices[deviceAddress].ipAddress = ipAddress;\n            _devices[deviceAddress].portNumber = portNumber;\n            _domains[domainAddress].devicesAddresses.push(deviceAddress);\n            _deviceNonce++;\n            emit DeviceAddedToDomain(deviceAddress, domainAddress);\n        }\n\n}\n",
  "sourcePath": "/home/ayedm/WebstormProjects/BlendCAC/eth/dapp/contracts/Domains.sol",
  "compiler": {
    "name": "solc",
    "version": "0.5.8+commit.23d335f2.Emscripten.clang"
  },
  "schemaVersion": "3.0.2",
  "updatedAt": "2019-08-02T07:10:25.965Z",
  "devdoc": {
    "methods": {}
  },
  "userdoc": {
    "methods": {}
  }
}