{
  "contractName": "Users",
  "abi": [
    {
      "inputs": [],
      "payable": false,
      "stateMutability": "nonpayable",
      "type": "constructor"
    },
    {
      "constant": false,
      "inputs": [
        {
          "name": "adminAddress",
          "type": "address"
        }
      ],
      "name": "addAdmin",
      "outputs": [],
      "payable": false,
      "stateMutability": "nonpayable",
      "type": "function"
    }
  ],
  "bytecode": "0x608060405234801561001057600080fd5b50336000806101000a81548173ffffffffffffffffffffffffffffffffffffffff021916908373ffffffffffffffffffffffffffffffffffffffff16021790555033600160003373ffffffffffffffffffffffffffffffffffffffff1673ffffffffffffffffffffffffffffffffffffffff16815260200190815260200160002060000160006101000a81548173ffffffffffffffffffffffffffffffffffffffff021916908373ffffffffffffffffffffffffffffffffffffffff16021790555060018060003373ffffffffffffffffffffffffffffffffffffffff1673ffffffffffffffffffffffffffffffffffffffff16815260200190815260200160002060000160146101000a81548160ff0219169083151502179055506102ca8061013b6000396000f3fe608060405234801561001057600080fd5b5060043610610048576000357c010000000000000000000000000000000000000000000000000000000090048063704802751461004d575b600080fd5b61008f6004803603602081101561006357600080fd5b81019080803573ffffffffffffffffffffffffffffffffffffffff169060200190929190505050610091565b005b3360011515600160008373ffffffffffffffffffffffffffffffffffffffff1673ffffffffffffffffffffffffffffffffffffffff16815260200190815260200160002060000160149054906101000a900460ff161515146100f257600080fd5b816000801515600160008473ffffffffffffffffffffffffffffffffffffffff1673ffffffffffffffffffffffffffffffffffffffff16815260200190815260200160002060000160149054906101000a900460ff161515146101bd576040517f08c379a00000000000000000000000000000000000000000000000000000000081526004018080602001828103825260038152602001807f776161000000000000000000000000000000000000000000000000000000000081525060200191505060405180910390fd5b83600160008673ffffffffffffffffffffffffffffffffffffffff1673ffffffffffffffffffffffffffffffffffffffff16815260200190815260200160002060000160006101000a81548173ffffffffffffffffffffffffffffffffffffffff021916908373ffffffffffffffffffffffffffffffffffffffff16021790555060018060008673ffffffffffffffffffffffffffffffffffffffff1673ffffffffffffffffffffffffffffffffffffffff16815260200190815260200160002060000160146101000a81548160ff0219169083151502179055505050505056fea165627a7a723058208a52bad7ed40f24bf22d7588d8362e9e03e6b2f2cd1eda7681ae42d79486ed9c0029",
  "source": "pragma solidity 0.5.8;\n\n\ncontract Users {\n\n    address private owner;\n\n    mapping (address => Admin) internal _admins;\n    mapping (address => Coordinator) internal _coordinators;\n    mapping (address => User) internal _users;\n\n    constructor() public {\n        owner = msg.sender;\n        _admins[msg.sender].adminAddress = msg.sender;\n        _admins[msg.sender].isExistent = true;\n    }\n\n    modifier isAdminExistent(address adminAddress, bool exists) {\n        require(_admins[adminAddress].isExistent == exists, 'waa');\n        _;\n    }\n\n    modifier isCoordinatorExistent(address coordinatorAddress, bool exists) {\n        require(_coordinators[coordinatorAddress].isExistent == exists);\n        _;\n    }\n\n    modifier isUserExistent(address userAddress, bool exists) {\n        require(_users[userAddress].isExistent == exists, 'waaaaa');\n        _;\n    }\n\n    modifier onlyAdmin(address adminAddress) {\n        require(_admins[adminAddress].isExistent == true);\n        _;\n    }\n\n    modifier onlyCoordinator(address coordinatorAddress) {\n        require(_coordinators[coordinatorAddress].isExistent == true, 'The provided address is not a coordinator address.');\n        _;\n    }\n\n    function addAdmin(address adminAddress) external onlyAdmin(msg.sender) isAdminExistent(adminAddress, false) {\n        _admins[adminAddress].adminAddress = adminAddress;\n        _admins[adminAddress].isExistent = true;\n\n    }\n\n    struct Admin {\n        address adminAddress;\n        bool isExistent;\n    }\n\n    struct User {\n        address userAddress;\n        bytes32 domainAddress;\n        bool isExistent;\n    }\n\n    struct Coordinator {\n        address coordinatorAddress;\n        bytes32 domainAddress;\n        bool isExistent;\n    }\n\n\n}\n",
  "sourcePath": "/home/ayedm/WebstormProjects/BlendCAC/eth/dapp/contracts/Users.sol",
  "compiler": {
    "name": "solc",
    "version": "0.5.8+commit.23d335f2.Emscripten.clang"
  },
  "schemaVersion": "3.0.2",
  "updatedAt": "2019-08-02T07:10:25.971Z",
  "devdoc": {
    "methods": {}
  },
  "userdoc": {
    "methods": {}
  }
}