{
  "contractName": "DelegationCertificates",
  "abi": [
    {
      "constant": true,
      "inputs": [
        {
          "name": "domainAddress",
          "type": "bytes32"
        }
      ],
      "name": "getDomain",
      "outputs": [
        {
          "components": [
            {
              "name": "domainAddress",
              "type": "bytes32"
            },
            {
              "name": "coordinatorAddress",
              "type": "address"
            },
            {
              "name": "devicesAddresses",
              "type": "bytes32[]"
            },
            {
              "name": "userAddresses",
              "type": "address[]"
            },
            {
              "name": "isExistent",
              "type": "bool"
            }
          ],
          "name": "",
          "type": "tuple"
        }
      ],
      "payable": false,
      "stateMutability": "view",
      "type": "function"
    },
    {
      "constant": false,
      "inputs": [
        {
          "name": "coordinatorAddress",
          "type": "address"
        }
      ],
      "name": "createDomainWithCoordinator",
      "outputs": [],
      "payable": false,
      "stateMutability": "nonpayable",
      "type": "function"
    },
    {
      "constant": true,
      "inputs": [
        {
          "name": "",
          "type": "bytes32"
        }
      ],
      "name": "_domains",
      "outputs": [
        {
          "name": "domainAddress",
          "type": "bytes32"
        },
        {
          "name": "coordinatorAddress",
          "type": "address"
        },
        {
          "name": "isExistent",
          "type": "bool"
        }
      ],
      "payable": false,
      "stateMutability": "view",
      "type": "function"
    },
    {
      "constant": false,
      "inputs": [
        {
          "name": "ipAddress",
          "type": "string"
        },
        {
          "name": "portNumber",
          "type": "uint16"
        },
        {
          "name": "domainAddress",
          "type": "bytes32"
        }
      ],
      "name": "addDeviceToDomain",
      "outputs": [],
      "payable": false,
      "stateMutability": "nonpayable",
      "type": "function"
    },
    {
      "constant": false,
      "inputs": [
        {
          "name": "subjectAddress",
          "type": "address"
        },
        {
          "name": "objectAddress",
          "type": "bytes32"
        }
      ],
      "name": "createCapabilityToken",
      "outputs": [],
      "payable": false,
      "stateMutability": "nonpayable",
      "type": "function"
    },
    {
      "constant": false,
      "inputs": [
        {
          "name": "adminAddress",
          "type": "address"
        }
      ],
      "name": "addAdmin",
      "outputs": [],
      "payable": false,
      "stateMutability": "nonpayable",
      "type": "function"
    },
    {
      "constant": false,
      "inputs": [
        {
          "name": "capabilityTokenAddress",
          "type": "bytes32"
        },
        {
          "name": "httpAction",
          "type": "string"
        },
        {
          "name": "resourceUrlRegex",
          "type": "string"
        }
      ],
      "name": "addPrivilegeToCapabilityToken",
      "outputs": [],
      "payable": false,
      "stateMutability": "nonpayable",
      "type": "function"
    },
    {
      "constant": false,
      "inputs": [
        {
          "name": "capabilityTokenAddress",
          "type": "bytes32"
        }
      ],
      "name": "issueCapabilityToken",
      "outputs": [],
      "payable": false,
      "stateMutability": "nonpayable",
      "type": "function"
    },
    {
      "constant": true,
      "inputs": [
        {
          "name": "domainAddress",
          "type": "bytes32"
        }
      ],
      "name": "getDomainUsersAddresses",
      "outputs": [
        {
          "name": "",
          "type": "address[]"
        }
      ],
      "payable": false,
      "stateMutability": "view",
      "type": "function"
    },
    {
      "constant": false,
      "inputs": [
        {
          "name": "userAddress",
          "type": "address"
        },
        {
          "name": "domainAddress",
          "type": "bytes32"
        }
      ],
      "name": "addUserToDomain",
      "outputs": [],
      "payable": false,
      "stateMutability": "nonpayable",
      "type": "function"
    },
    {
      "constant": true,
      "inputs": [
        {
          "name": "capabilityTokenAddress",
          "type": "bytes32"
        }
      ],
      "name": "getCapabilityToken",
      "outputs": [
        {
          "components": [
            {
              "name": "tokenAddress",
              "type": "bytes32"
            },
            {
              "name": "issuerAddress",
              "type": "address"
            },
            {
              "name": "subjectAddress",
              "type": "address"
            },
            {
              "name": "objectAddress",
              "type": "bytes32"
            },
            {
              "name": "domainAddress",
              "type": "bytes32"
            },
            {
              "name": "issuedTime",
              "type": "uint256"
            },
            {
              "name": "expiredTime",
              "type": "uint256"
            },
            {
              "name": "isExistent",
              "type": "bool"
            },
            {
              "name": "isIssued",
              "type": "bool"
            },
            {
              "components": [
                {
                  "name": "httpAction",
                  "type": "string"
                },
                {
                  "name": "resourceUrlRegex",
                  "type": "string"
                }
              ],
              "name": "privileges",
              "type": "tuple[]"
            }
          ],
          "name": "",
          "type": "tuple"
        }
      ],
      "payable": false,
      "stateMutability": "view",
      "type": "function"
    },
    {
      "constant": true,
      "inputs": [
        {
          "name": "domainAddress",
          "type": "bytes32"
        }
      ],
      "name": "getDomainDevicesAddresses",
      "outputs": [
        {
          "name": "",
          "type": "bytes32[]"
        }
      ],
      "payable": false,
      "stateMutability": "view",
      "type": "function"
    },
    {
      "constant": true,
      "inputs": [
        {
          "name": "",
          "type": "bytes32"
        }
      ],
      "name": "_devices",
      "outputs": [
        {
          "name": "deviceAddress",
          "type": "bytes32"
        },
        {
          "name": "ipAddress",
          "type": "string"
        },
        {
          "name": "portNumber",
          "type": "uint16"
        },
        {
          "name": "domainAddress",
          "type": "bytes32"
        },
        {
          "name": "isExistent",
          "type": "bool"
        }
      ],
      "payable": false,
      "stateMutability": "view",
      "type": "function"
    },
    {
      "anonymous": false,
      "inputs": [
        {
          "indexed": false,
          "name": "delegationTreeAddress",
          "type": "bytes32"
        }
      ],
      "name": "DelegationTreeCreated",
      "type": "event"
    },
    {
      "anonymous": false,
      "inputs": [
        {
          "indexed": false,
          "name": "delegationTreeAddress",
          "type": "bytes32"
        }
      ],
      "name": "DelegationTreeInitialized",
      "type": "event"
    },
    {
      "anonymous": false,
      "inputs": [
        {
          "indexed": false,
          "name": "delegateNodeAddress",
          "type": "bytes32"
        },
        {
          "indexed": false,
          "name": "privilegeIndex",
          "type": "uint256"
        }
      ],
      "name": "PrivilegeAddedToDelegateNode",
      "type": "event"
    },
    {
      "anonymous": false,
      "inputs": [
        {
          "indexed": false,
          "name": "delegateNodeAddress",
          "type": "bytes32"
        }
      ],
      "name": "DelegateNodeCreated",
      "type": "event"
    },
    {
      "anonymous": false,
      "inputs": [
        {
          "indexed": false,
          "name": "delegateNodeAddress",
          "type": "bytes32"
        }
      ],
      "name": "DelegationCertificateIssued",
      "type": "event"
    },
    {
      "anonymous": false,
      "inputs": [
        {
          "indexed": false,
          "name": "delegateNodeAddress",
          "type": "bytes32"
        }
      ],
      "name": "DelegationCertificateRevoked",
      "type": "event"
    },
    {
      "anonymous": false,
      "inputs": [
        {
          "indexed": false,
          "name": "delegateNodeAddress",
          "type": "bytes32"
        },
        {
          "indexed": false,
          "name": "httpAction",
          "type": "string"
        },
        {
          "indexed": false,
          "name": "resourceUrlRegex",
          "type": "string"
        }
      ],
      "name": "DelegationCertificatePrivilegeRevoked",
      "type": "event"
    },
    {
      "anonymous": false,
      "inputs": [
        {
          "indexed": false,
          "name": "capabilityTokenAddress",
          "type": "bytes32"
        }
      ],
      "name": "CapabilityTokenCreated",
      "type": "event"
    },
    {
      "anonymous": false,
      "inputs": [
        {
          "indexed": false,
          "name": "capabilityTokenAddress",
          "type": "bytes32"
        }
      ],
      "name": "CapabilityTokenIssued",
      "type": "event"
    },
    {
      "anonymous": false,
      "inputs": [
        {
          "indexed": false,
          "name": "capabilityTokenAddress",
          "type": "bytes32"
        },
        {
          "indexed": false,
          "name": "privilegeIndex",
          "type": "uint256"
        }
      ],
      "name": "PrivilegeAddedToCapabilityToken",
      "type": "event"
    },
    {
      "anonymous": false,
      "inputs": [
        {
          "indexed": false,
          "name": "deviceAddress",
          "type": "bytes32"
        },
        {
          "indexed": false,
          "name": "domainAddress",
          "type": "bytes32"
        }
      ],
      "name": "DeviceAddedToDomain",
      "type": "event"
    },
    {
      "anonymous": false,
      "inputs": [
        {
          "indexed": false,
          "name": "userAddress",
          "type": "address"
        },
        {
          "indexed": false,
          "name": "domainAddress",
          "type": "bytes32"
        }
      ],
      "name": "UserAddedToDomain",
      "type": "event"
    },
    {
      "anonymous": false,
      "inputs": [
        {
          "indexed": false,
          "name": "coordinatorAddress",
          "type": "address"
        },
        {
          "indexed": false,
          "name": "domainAddress",
          "type": "bytes32"
        }
      ],
      "name": "DomainCreated",
      "type": "event"
    },
    {
      "constant": true,
      "inputs": [
        {
          "name": "delegationTreeAddress",
          "type": "bytes32"
        }
      ],
      "name": "getDelegationTree",
      "outputs": [
        {
          "components": [
            {
              "name": "treeAddress",
              "type": "bytes32"
            },
            {
              "name": "supervisorAddress",
              "type": "address"
            },
            {
              "name": "maximumDepth",
              "type": "uint256"
            },
            {
              "name": "maximumWidth",
              "type": "uint256"
            },
            {
              "name": "rootNodeAddress",
              "type": "bytes32"
            },
            {
              "name": "issuingTimestamp",
              "type": "uint256"
            },
            {
              "name": "expirationTimestamp",
              "type": "uint256"
            },
            {
              "name": "isExistent",
              "type": "bool"
            },
            {
              "name": "isInitialized",
              "type": "bool"
            }
          ],
          "name": "",
          "type": "tuple"
        }
      ],
      "payable": false,
      "stateMutability": "view",
      "type": "function"
    },
    {
      "constant": true,
      "inputs": [
        {
          "name": "delegateAddress",
          "type": "address"
        }
      ],
      "name": "getDelegateNodeAddress",
      "outputs": [
        {
          "name": "",
          "type": "bytes32"
        }
      ],
      "payable": false,
      "stateMutability": "view",
      "type": "function"
    },
    {
      "constant": true,
      "inputs": [
        {
          "name": "delegateNodeAddress",
          "type": "bytes32"
        }
      ],
      "name": "getDelegateNode",
      "outputs": [
        {
          "components": [
            {
              "name": "nodeAddress",
              "type": "bytes32"
            },
            {
              "name": "subjectAddress",
              "type": "address"
            },
            {
              "name": "parentNodeAddress",
              "type": "bytes32"
            },
            {
              "name": "treeAddress",
              "type": "bytes32"
            },
            {
              "name": "currentDepth",
              "type": "uint256"
            },
            {
              "name": "childrenNodesAddresses",
              "type": "bytes32[]"
            },
            {
              "name": "issuingTimestamp",
              "type": "uint256"
            },
            {
              "name": "expirationTimestamp",
              "type": "uint256"
            },
            {
              "components": [
                {
                  "name": "httpAction",
                  "type": "string"
                },
                {
                  "name": "resourceUrlRegex",
                  "type": "string"
                }
              ],
              "name": "privileges",
              "type": "tuple[]"
            },
            {
              "name": "isExistent",
              "type": "bool"
            },
            {
              "name": "isInitialized",
              "type": "bool"
            }
          ],
          "name": "",
          "type": "tuple"
        }
      ],
      "payable": false,
      "stateMutability": "view",
      "type": "function"
    },
    {
      "constant": false,
      "inputs": [],
      "name": "createDelegationTree",
      "outputs": [],
      "payable": false,
      "stateMutability": "nonpayable",
      "type": "function"
    },
    {
      "constant": false,
      "inputs": [
        {
          "name": "delegationTreeAddress",
          "type": "bytes32"
        },
        {
          "name": "httpAction",
          "type": "string"
        },
        {
          "name": "resourceUrlRegex",
          "type": "string"
        }
      ],
      "name": "addPrivilegeToRootNode",
      "outputs": [],
      "payable": false,
      "stateMutability": "nonpayable",
      "type": "function"
    },
    {
      "constant": false,
      "inputs": [
        {
          "name": "delegationTreeAddress",
          "type": "bytes32"
        }
      ],
      "name": "initDelegationTree",
      "outputs": [],
      "payable": false,
      "stateMutability": "nonpayable",
      "type": "function"
    },
    {
      "constant": false,
      "inputs": [
        {
          "name": "delegatorNodeAddress",
          "type": "bytes32"
        },
        {
          "name": "subjectAddress",
          "type": "address"
        }
      ],
      "name": "createDelegateNode",
      "outputs": [],
      "payable": false,
      "stateMutability": "nonpayable",
      "type": "function"
    },
    {
      "constant": false,
      "inputs": [
        {
          "name": "delegateNodeAddress",
          "type": "bytes32"
        },
        {
          "name": "httpAction",
          "type": "string"
        },
        {
          "name": "resourceUrlRegex",
          "type": "string"
        }
      ],
      "name": "addPrivilegeToDelegateNode",
      "outputs": [],
      "payable": false,
      "stateMutability": "nonpayable",
      "type": "function"
    },
    {
      "constant": false,
      "inputs": [
        {
          "name": "delegateNodeAddress",
          "type": "bytes32"
        }
      ],
      "name": "issueDelegationCertificate",
      "outputs": [],
      "payable": false,
      "stateMutability": "nonpayable",
      "type": "function"
    },
    {
      "constant": false,
      "inputs": [
        {
          "name": "delegateNodeAddress",
          "type": "bytes32"
        }
      ],
      "name": "revokeDelegationCertificate",
      "outputs": [],
      "payable": false,
      "stateMutability": "nonpayable",
      "type": "function"
    },
    {
      "constant": false,
      "inputs": [
        {
          "name": "delegateNodeAddress",
          "type": "bytes32"
        },
        {
          "components": [
            {
              "name": "httpAction",
              "type": "string"
            },
            {
              "name": "resourceUrlRegex",
              "type": "string"
            }
          ],
          "name": "privileges",
          "type": "tuple[]"
        }
      ],
      "name": "revokeDelegationCertificatePrivileges",
      "outputs": [],
      "payable": false,
      "stateMutability": "nonpayable",
      "type": "function"
    }
  ],
  "bytecode": "0x60806040526000600655600060075560006008556000600d556000600e55336000806101000a81548173ffffffffffffffffffffffffffffffffffffffff021916908373ffffffffffffffffffffffffffffffffffffffff16021790555033600160003373ffffffffffffffffffffffffffffffffffffffff1673ffffffffffffffffffffffffffffffffffffffff16815260200190815260200160002060000160006101000a81548173ffffffffffffffffffffffffffffffffffffffff021916908373ffffffffffffffffffffffffffffffffffffffff16021790555060018060003373ffffffffffffffffffffffffffffffffffffffff1673ffffffffffffffffffffffffffffffffffffffff16815260200190815260200160002060000160146101000a81548160ff021916908315150217905550615be8806101476000396000f3fe608060405234801561001057600080fd5b50600436106101585760003560e01c80639435d432116100c3578063e1d147101161007c578063e1d14710146103a9578063e237d7f8146103d9578063e5cb314d14610409578063e979aaf314610439578063efda702614610455578063f17fe7ef1461048957610158565b80639435d432146102eb5780639c4799ab14610307578063a3a1e7ad14610311578063a83af94f1461032d578063adeda2901461035d578063ccfbe0f31461038d57610158565b8063535b388111610115578063535b3881146102435780636f39dd871461025f578063704802751461027b578063843ae88a146102975780638793294d146102b35780638cc69c55146102cf57610158565b806303002c271461015d5780631a242547146101795780632808bec4146101a9578063294eb569146101c557806331dd2392146101e15780634394c92a14610213575b600080fd5b61017760048036036101729190810190614466565b6104a5565b005b610193600480360361018e9190810190614466565b610615565b6040516101a0919061582d565b60405180910390f35b6101c360048036036101be9190810190614466565b6107a3565b005b6101df60048036036101da9190810190614401565b610acb565b005b6101fb60048036036101f69190810190614466565b610cfe565b60405161020a93929190615483565b60405180910390f35b61022d60048036036102289190810190614466565b610d55565b60405161023a9190615811565b60405180910390f35b61025d6004803603610258919081019061459e565b610e4b565b005b6102796004803603610274919081019061442a565b611000565b005b61029560048036036102909190810190614401565b611284565b005b6102b160048036036102ac919081019061451f565b61145e565b005b6102cd60048036036102c8919081019061448f565b611618565b005b6102e960048036036102e4919081019061451f565b6117b7565b005b610305600480360361030091908101906144cb565b611ab6565b005b61030f611e64565b005b61032b60048036036103269190810190614466565b6120b5565b005b61034760048036036103429190810190614466565b612200565b6040516103549190615424565b60405180910390f35b61037760048036036103729190810190614401565b6122a4565b6040516103849190615468565b60405180910390f35b6103a760048036036103a2919081019061442a565b6122ed565b005b6103c360048036036103be9190810190614466565b6126db565b6040516103d091906157cd565b60405180910390f35b6103f360048036036103ee9190810190614466565b6129c0565b60405161040091906157ef565b60405180910390f35b610423600480360361041e9190810190614466565b612cb1565b6040516104309190615446565b60405180910390f35b610453600480360361044e919081019061451f565b612d1f565b005b61046f600480360361046a9190810190614466565b612f97565b604051610480959493929190615528565b60405180910390f35b6104a3600480360361049e9190810190614466565b613080565b005b8060011515600b600083815260200190815260200160002060090160009054906101000a900460ff16151514610510576040517f08c379a00000000000000000000000000000000000000000000000000000000081526004016105079061578d565b60405180910390fd5b8160011515600b600083815260200190815260200160002060090160019054906101000a900460ff1615151461057b576040517f08c379a00000000000000000000000000000000000000000000000000000000081526004016105729061576d565b60405180910390fd5b82336105c6600c60008373ffffffffffffffffffffffffffffffffffffffff1673ffffffffffffffffffffffffffffffffffffffff1681526020019081526020016000205483613322565b610605576040517f08c379a00000000000000000000000000000000000000000000000000000000081526004016105fc906156ad565b60405180910390fd5b61060e85613381565b5050505050565b61061d613df7565b600560008381526020019081526020016000206040518060a0016040529081600082015481526020016001820160009054906101000a900473ffffffffffffffffffffffffffffffffffffffff1673ffffffffffffffffffffffffffffffffffffffff1673ffffffffffffffffffffffffffffffffffffffff168152602001600282018054806020026020016040519081016040528092919081815260200182805480156106ea57602002820191906000526020600020905b8154815260200190600101908083116106d6575b505050505081526020016003820180548060200260200160405190810160405280929190818152602001828054801561077857602002820191906000526020600020905b8160009054906101000a900473ffffffffffffffffffffffffffffffffffffffff1673ffffffffffffffffffffffffffffffffffffffff168152602001906001019080831161072e575b505050505081526020016004820160009054906101000a900460ff1615151515815250509050919050565b8060011515600b600083815260200190815260200160002060090160009054906101000a900460ff1615151461080e576040517f08c379a00000000000000000000000000000000000000000000000000000000081526004016108059061578d565b60405180910390fd5b8160001515600b600083815260200190815260200160002060090160019054906101000a900460ff16151514610879576040517f08c379a00000000000000000000000000000000000000000000000000000000081526004016108709061572d565b60405180910390fd5b82338073ffffffffffffffffffffffffffffffffffffffff16600b6000600c60008573ffffffffffffffffffffffffffffffffffffffff1673ffffffffffffffffffffffffffffffffffffffff16815260200190815260200160002054815260200190815260200160002060010160009054906101000a900473ffffffffffffffffffffffffffffffffffffffff1673ffffffffffffffffffffffffffffffffffffffff161461095e576040517f08c379a0000000000000000000000000000000000000000000000000000000008152600401610955906156ed565b60405180910390fd5b6000600b600087815260200190815260200160002090506000600b6000836002015481526020019081526020016000209050600a600082600301548152602001908152602001600020600301548160050180549050106109bd57600080fd5b8060050187908060018154018082558091505090600182039060005260206000200160009091929091909150555060018260090160016101000a81548160ff02191690831515021790555042826006018190555062015180420182600701819055508160000154600c60008460010160009054906101000a900473ffffffffffffffffffffffffffffffffffffffff1673ffffffffffffffffffffffffffffffffffffffff1673ffffffffffffffffffffffffffffffffffffffff168152602001908152602001600020819055507f3b3b3ee7d018741ef3c6d7fcfa0ebd6c1ab43bc6721c41891207ac966a594e8487604051610aba9190615468565b60405180910390a150505050505050565b3360011515600160008373ffffffffffffffffffffffffffffffffffffffff1673ffffffffffffffffffffffffffffffffffffffff16815260200190815260200160002060000160149054906101000a900460ff16151514610b2c57600080fd5b816000801515600260008473ffffffffffffffffffffffffffffffffffffffff1673ffffffffffffffffffffffffffffffffffffffff16815260200190815260200160002060020160009054906101000a900460ff16151514610b8e57600080fd5b6000610b9985613642565b905084600260008773ffffffffffffffffffffffffffffffffffffffff1673ffffffffffffffffffffffffffffffffffffffff16815260200190815260200160002060000160006101000a81548173ffffffffffffffffffffffffffffffffffffffff021916908373ffffffffffffffffffffffffffffffffffffffff16021790555080600260008773ffffffffffffffffffffffffffffffffffffffff1673ffffffffffffffffffffffffffffffffffffffff168152602001908152602001600020600101819055506001600260008773ffffffffffffffffffffffffffffffffffffffff1673ffffffffffffffffffffffffffffffffffffffff16815260200190815260200160002060020160006101000a81548160ff0219169083151502179055507f971a45439c53f47a2d64fee67b95ba678b17781bc1ba0eb9ba6fa7dd2a53ebd08582604051610cef9291906153fb565b60405180910390a15050505050565b60056020528060005260406000206000915090508060000154908060010160009054906101000a900473ffffffffffffffffffffffffffffffffffffffff16908060040160009054906101000a900460ff16905083565b610d5d613e41565b600a600083815260200190815260200160002060405180610120016040529081600082015481526020016001820160009054906101000a900473ffffffffffffffffffffffffffffffffffffffff1673ffffffffffffffffffffffffffffffffffffffff1673ffffffffffffffffffffffffffffffffffffffff16815260200160028201548152602001600382015481526020016004820154815260200160058201548152602001600682015481526020016007820160009054906101000a900460ff161515151581526020016007820160019054906101000a900460ff1615151515815250509050919050565b3360011515600160008373ffffffffffffffffffffffffffffffffffffffff1673ffffffffffffffffffffffffffffffffffffffff16815260200190815260200160002060000160149054906101000a900460ff16151514610eac57600080fd5b60006007544284604051602001610ec5939291906153be565b60405160208183030381529060405280519060200120905080600460008381526020019081526020016000206000018190555082600460008381526020019081526020016000206003018190555084600460008381526020019081526020016000206001019080519060200190610f3d929190613ead565b50836004600083815260200190815260200160002060020160006101000a81548161ffff021916908361ffff160217905550600560008481526020019081526020016000206002018190806001815401808255809150509060018203906000526020600020016000909192909190915055506007600081548092919060010191905055507e099e2c5383abc6c8301b8ec0e4a872db1aa80977f6e27cb5a1e91106aa55558184604051610ff19291906154ba565b60405180910390a15050505050565b3360011515600260008373ffffffffffffffffffffffffffffffffffffffff1673ffffffffffffffffffffffffffffffffffffffff16815260200190815260200160002060020160009054906101000a900460ff16151514611097576040517f08c379a000000000000000000000000000000000000000000000000000000000815260040161108e9061562d565b60405180910390fd5b6000600854428533866040516020016110b495949392919061535f565b604051602081830303815290604052805190602001209050806009600083815260200190815260200160002060000181905550336009600083815260200190815260200160002060010160006101000a81548173ffffffffffffffffffffffffffffffffffffffff021916908373ffffffffffffffffffffffffffffffffffffffff160217905550836009600083815260200190815260200160002060020160006101000a81548173ffffffffffffffffffffffffffffffffffffffff021916908373ffffffffffffffffffffffffffffffffffffffff16021790555082600960008381526020019081526020016000206003018190555060046000848152602001908152602001600020600301546009600083815260200190815260200160002060040181905550426009600083815260200190815260200160002060050181905550620151804201600960008381526020019081526020016000206006018190555060016009600083815260200190815260200160002060070160006101000a81548160ff0219169083151502179055507fdd2ae10937b0882a33adaad6f2aa5b4fc8a17b1aeb382129afecc80c35528e1f816040516112769190615468565b60405180910390a150505050565b3360011515600160008373ffffffffffffffffffffffffffffffffffffffff1673ffffffffffffffffffffffffffffffffffffffff16815260200190815260200160002060000160149054906101000a900460ff161515146112e557600080fd5b816000801515600160008473ffffffffffffffffffffffffffffffffffffffff1673ffffffffffffffffffffffffffffffffffffffff16815260200190815260200160002060000160149054906101000a900460ff1615151461137d576040517f08c379a00000000000000000000000000000000000000000000000000000000081526004016113749061568d565b60405180910390fd5b83600160008673ffffffffffffffffffffffffffffffffffffffff1673ffffffffffffffffffffffffffffffffffffffff16815260200190815260200160002060000160006101000a81548173ffffffffffffffffffffffffffffffffffffffff021916908373ffffffffffffffffffffffffffffffffffffffff16021790555060018060008673ffffffffffffffffffffffffffffffffffffffff1673ffffffffffffffffffffffffffffffffffffffff16815260200190815260200160002060000160146101000a81548160ff02191690831515021790555050505050565b8260018015156009600084815260200190815260200160002060070160009054906101000a900460ff161515146114ca576040517f08c379a00000000000000000000000000000000000000000000000000000000081526004016114c1906155cd565b60405180910390fd5b8460008015156009600084815260200190815260200160002060070160019054906101000a900460ff16151514611536576040517f08c379a000000000000000000000000000000000000000000000000000000000815260040161152d906157ad565b60405180910390fd5b6000600960008981526020019081526020016000209050600060018260080160405180604001604052808b81526020018a8152509080600181540180825580915050906001820390600052602060002090600202016000909192909190915060008201518160000190805190602001906115b1929190613f2d565b5060208201518160010190805190602001906115ce929190613f2d565b5050500390507faaf59c362fa1ab8abef16b711afeb8b0fb69b637e5b32dd21b39acb03dff52f38982604051611605929190615582565b60405180910390a1505050505050505050565b8160011515600b600083815260200190815260200160002060090160009054906101000a900460ff16151514611683576040517f08c379a000000000000000000000000000000000000000000000000000000000815260040161167a9061578d565b60405180910390fd5b3360011515600b6000600c60008573ffffffffffffffffffffffffffffffffffffffff1673ffffffffffffffffffffffffffffffffffffffff16815260200190815260200160002054815260200190815260200160002060090160009054906101000a900460ff1615151461172d576040517f08c379a00000000000000000000000000000000000000000000000000000000081526004016117249061570d565b60405180910390fd5b6000600b60008681526020019081526020016000209050600a6000826003015481526020019081526020016000206002015481600401541061176e57600080fd5b600a6000826003015481526020019081526020016000206003015481600501805490501061179b57600080fd5b6117af848683600301548460040154613791565b505050505050565b8260011515600b600083815260200190815260200160002060090160009054906101000a900460ff16151514611822576040517f08c379a00000000000000000000000000000000000000000000000000000000081526004016118199061578d565b60405180910390fd5b8360001515600b600083815260200190815260200160002060090160019054906101000a900460ff1615151461188d576040517f08c379a00000000000000000000000000000000000000000000000000000000081526004016118849061572d565b60405180910390fd5b84338073ffffffffffffffffffffffffffffffffffffffff16600b6000600c60008573ffffffffffffffffffffffffffffffffffffffff1673ffffffffffffffffffffffffffffffffffffffff16815260200190815260200160002054815260200190815260200160002060010160009054906101000a900473ffffffffffffffffffffffffffffffffffffffff1673ffffffffffffffffffffffffffffffffffffffff1614611972576040517f08c379a0000000000000000000000000000000000000000000000000000000008152600401611969906156ed565b60405180910390fd5b60011515600b600089815260200190815260200160002060090160009054906101000a900460ff161515146119a657600080fd5b60001515600b600089815260200190815260200160002060090160019054906101000a900460ff161515146119da57600080fd5b60006001600b60008a815260200190815260200160002060080160405180604001604052808a815260200189815250908060018154018082558091505090600182039060005260206000209060020201600090919290919091506000820151816000019080519060200190611a50929190613f2d565b506020820151816001019080519060200190611a6d929190613f2d565b5050500390507fb7ae0633eb4c93362d1ca5185117ac3c82fecdd8902e6b53e2f941839f373c3c8882604051611aa4929190615582565b60405180910390a15050505050505050565b8160011515600b600083815260200190815260200160002060090160009054906101000a900460ff16151514611b21576040517f08c379a0000000000000000000000000000000000000000000000000000000008152600401611b189061578d565b60405180910390fd5b8260011515600b600083815260200190815260200160002060090160019054906101000a900460ff16151514611b8c576040517f08c379a0000000000000000000000000000000000000000000000000000000008152600401611b839061576d565b60405180910390fd5b8333611bd7600c60008373ffffffffffffffffffffffffffffffffffffffff1673ffffffffffffffffffffffffffffffffffffffff1681526020019081526020016000205483613322565b611c16576040517f08c379a0000000000000000000000000000000000000000000000000000000008152600401611c0d906156ad565b60405180910390fd5b6000855111611c5a576040517f08c379a0000000000000000000000000000000000000000000000000000000008152600401611c519061564d565b60405180910390fd5b611e1385600b6000898152602001908152602001600020600801805480602002602001604051908101604052809291908181526020016000905b82821015611e0a5783829060005260206000209060020201604051806040016040529081600082018054600181600116156101000203166002900480601f016020809104026020016040519081016040528092919081815260200182805460018160011615610100020316600290048015611d505780601f10611d2557610100808354040283529160200191611d50565b820191906000526020600020905b815481529060010190602001808311611d3357829003601f168201915b50505050508152602001600182018054600181600116156101000203166002900480601f016020809104026020016040519081016040528092919081815260200182805460018160011615610100020316600290048015611df25780601f10611dc757610100808354040283529160200191611df2565b820191906000526020600020905b815481529060010190602001808311611dd557829003601f168201915b50505050508152505081526020019060010190611c94565b50505050613975565b611e52576040517f08c379a0000000000000000000000000000000000000000000000000000000008152600401611e499061566d565b60405180910390fd5b611e5c8686613a20565b505050505050565b3360011515600260008373ffffffffffffffffffffffffffffffffffffffff1673ffffffffffffffffffffffffffffffffffffffff16815260200190815260200160002060020160009054906101000a900460ff16151514611efb576040517f08c379a0000000000000000000000000000000000000000000000000000000008152600401611ef29061562d565b60405180910390fd5b6000600d544233604051602001611f1493929190615322565b60405160208183030381529060405280519060200120905080600a60008381526020019081526020016000206000018190555033600a600083815260200190815260200160002060010160006101000a81548173ffffffffffffffffffffffffffffffffffffffff021916908373ffffffffffffffffffffffffffffffffffffffff160217905550601060ff16600a600083815260200190815260200160002060020181905550601060ff16600a6000838152602001908152602001600020600301819055506001600a600083815260200190815260200160002060070160006101000a81548160ff0219169083151502179055506000600a600083815260200190815260200160002060070160016101000a81548160ff021916908315150217905550600d60008154809291906001019190505550600061205c336000801b846000613791565b905080600a6000848152602001908152602001600020600401819055507f03b1405f6d695d6f422d86c4409595f90e75c85bd3e4b330f58051365bbe7f6f826040516120a89190615468565b60405180910390a1505050565b3360011515600260008373ffffffffffffffffffffffffffffffffffffffff1673ffffffffffffffffffffffffffffffffffffffff16815260200190815260200160002060020160009054906101000a900460ff1615151461214c576040517f08c379a00000000000000000000000000000000000000000000000000000000081526004016121439061562d565b60405180910390fd5b6000600960008481526020019081526020016000209050600115158160070160009054906101000a900460ff1615151461218557600080fd5b600015158160070160019054906101000a900460ff161515146121a757600080fd5b60018160070160016101000a81548160ff0219169083151502179055507fc164f23f27ed2769ff9375c72bbfa9119a230ab031e04f08fbabe023db62872c836040516121f39190615468565b60405180910390a1505050565b60606005600083815260200190815260200160002060030180548060200260200160405190810160405280929190818152602001828054801561229857602002820191906000526020600020905b8160009054906101000a900473ffffffffffffffffffffffffffffffffffffffff1673ffffffffffffffffffffffffffffffffffffffff168152602001906001019080831161224e575b50505050509050919050565b6000600c60008373ffffffffffffffffffffffffffffffffffffffff1673ffffffffffffffffffffffffffffffffffffffff168152602001908152602001600020549050919050565b3360011515600160008373ffffffffffffffffffffffffffffffffffffffff1673ffffffffffffffffffffffffffffffffffffffff16815260200190815260200160002060000160149054906101000a900460ff1615151461234e57600080fd5b826000801515600360008473ffffffffffffffffffffffffffffffffffffffff1673ffffffffffffffffffffffffffffffffffffffff16815260200190815260200160002060020160009054906101000a900460ff161515146123e6576040517f08c379a00000000000000000000000000000000000000000000000000000000081526004016123dd906156cd565b60405180910390fd5b83600160606040518060400160405280600181526020017f20000000000000000000000000000000000000000000000000000000000000008152509050600115158215151415612469576040518060400160405280600581526020017f206e6f742000000000000000000000000000000000000000000000000000000081525090505b60608160405160200161247c91906152b8565b60405160208183030381529060405290508215156005600086815260200190815260200160002060040160009054906101000a900460ff1615151481906124f9576040517f08c379a00000000000000000000000000000000000000000000000000000000081526004016124f091906155ab565b60405180910390fd5b5088600360008b73ffffffffffffffffffffffffffffffffffffffff1673ffffffffffffffffffffffffffffffffffffffff16815260200190815260200160002060000160006101000a81548173ffffffffffffffffffffffffffffffffffffffff021916908373ffffffffffffffffffffffffffffffffffffffff16021790555087600360008b73ffffffffffffffffffffffffffffffffffffffff1673ffffffffffffffffffffffffffffffffffffffff168152602001908152602001600020600101819055506001600360008b73ffffffffffffffffffffffffffffffffffffffff1673ffffffffffffffffffffffffffffffffffffffff16815260200190815260200160002060020160006101000a81548160ff021916908315150217905550600560008981526020019081526020016000206003018990806001815401808255809150509060018203906000526020600020016000909192909190916101000a81548173ffffffffffffffffffffffffffffffffffffffff021916908373ffffffffffffffffffffffffffffffffffffffff160217905550507f0efc69f0c283f6c3145fb77fd70cbd4c730e1601abab02644f6c4caf7331230b89896040516126c89291906153fb565b60405180910390a1505050505050505050565b6126e3613fad565b6009600083815260200190815260200160002060405180610140016040529081600082015481526020016001820160009054906101000a900473ffffffffffffffffffffffffffffffffffffffff1673ffffffffffffffffffffffffffffffffffffffff1673ffffffffffffffffffffffffffffffffffffffff1681526020016002820160009054906101000a900473ffffffffffffffffffffffffffffffffffffffff1673ffffffffffffffffffffffffffffffffffffffff1673ffffffffffffffffffffffffffffffffffffffff168152602001600382015481526020016004820154815260200160058201548152602001600682015481526020016007820160009054906101000a900460ff161515151581526020016007820160019054906101000a900460ff1615151515815260200160088201805480602002602001604051908101604052809291908181526020016000905b828210156129b15783829060005260206000209060020201604051806040016040529081600082018054600181600116156101000203166002900480601f0160208091040260200160405190810160405280929190818152602001828054600181600116156101000203166002900480156128f75780601f106128cc576101008083540402835291602001916128f7565b820191906000526020600020905b8154815290600101906020018083116128da57829003601f168201915b50505050508152602001600182018054600181600116156101000203166002900480601f0160208091040260200160405190810160405280929190818152602001828054600181600116156101000203166002900480156129995780601f1061296e57610100808354040283529160200191612999565b820191906000526020600020905b81548152906001019060200180831161297c57829003601f168201915b5050505050815250508152602001906001019061283b565b50505050815250509050919050565b6129c8614039565b600b600083815260200190815260200160002060405180610160016040529081600082015481526020016001820160009054906101000a900473ffffffffffffffffffffffffffffffffffffffff1673ffffffffffffffffffffffffffffffffffffffff1673ffffffffffffffffffffffffffffffffffffffff16815260200160028201548152602001600382015481526020016004820154815260200160058201805480602002602001604051908101604052809291908181526020018280548015612ab457602002820191906000526020600020905b815481526020019060010190808311612aa0575b50505050508152602001600682015481526020016007820154815260200160088201805480602002602001604051908101604052809291908181526020016000905b82821015612c6c5783829060005260206000209060020201604051806040016040529081600082018054600181600116156101000203166002900480601f016020809104026020016040519081016040528092919081815260200182805460018160011615610100020316600290048015612bb25780601f10612b8757610100808354040283529160200191612bb2565b820191906000526020600020905b815481529060010190602001808311612b9557829003601f168201915b50505050508152602001600182018054600181600116156101000203166002900480601f016020809104026020016040519081016040528092919081815260200182805460018160011615610100020316600290048015612c545780601f10612c2957610100808354040283529160200191612c54565b820191906000526020600020905b815481529060010190602001808311612c3757829003601f168201915b50505050508152505081526020019060010190612af6565b5050505081526020016009820160009054906101000a900460ff161515151581526020016009820160019054906101000a900460ff1615151515815250509050919050565b606060056000838152602001908152602001600020600201805480602002602001604051908101604052809291908181526020018280548015612d1357602002820191906000526020600020905b815481526020019060010190808311612cff575b50505050509050919050565b8260011515600a600083815260200190815260200160002060070160009054906101000a900460ff16151514612d8a576040517f08c379a0000000000000000000000000000000000000000000000000000000008152600401612d819061574d565b60405180910390fd5b8360001515600a600083815260200190815260200160002060070160019054906101000a900460ff16151514612df5576040517f08c379a0000000000000000000000000000000000000000000000000000000008152600401612dec906155ed565b60405180910390fd5b84338073ffffffffffffffffffffffffffffffffffffffff16600a600084815260200190815260200160002060010160009054906101000a900473ffffffffffffffffffffffffffffffffffffffff1673ffffffffffffffffffffffffffffffffffffffff1614612e9b576040517f08c379a0000000000000000000000000000000000000000000000000000000008152600401612e929061560d565b60405180910390fd5b6000600b6000600a60008b81526020019081526020016000206004015481526020019081526020016000209050600060018260080160405180604001604052808b81526020018a815250908060018154018082558091505090600182039060005260206000209060020201600090919290919091506000820151816000019080519060200190612f2c929190613f2d565b506020820151816001019080519060200190612f49929190613f2d565b5050500390507fb7ae0633eb4c93362d1ca5185117ac3c82fecdd8902e6b53e2f941839f373c3c826000015482604051612f84929190615582565b60405180910390a1505050505050505050565b6004602052806000526040600020600091509050806000015490806001018054600181600116156101000203166002900480601f0160208091040260200160405190810160405280929190818152602001828054600181600116156101000203166002900480156130495780601f1061301e57610100808354040283529160200191613049565b820191906000526020600020905b81548152906001019060200180831161302c57829003601f168201915b5050505050908060020160009054906101000a900461ffff16908060030154908060040160009054906101000a900460ff16905085565b8060011515600a600083815260200190815260200160002060070160009054906101000a900460ff161515146130eb576040517f08c379a00000000000000000000000000000000000000000000000000000000081526004016130e29061574d565b60405180910390fd5b8160001515600a600083815260200190815260200160002060070160019054906101000a900460ff16151514613156576040517f08c379a000000000000000000000000000000000000000000000000000000000815260040161314d906155ed565b60405180910390fd5b82338073ffffffffffffffffffffffffffffffffffffffff16600a600084815260200190815260200160002060010160009054906101000a900473ffffffffffffffffffffffffffffffffffffffff1673ffffffffffffffffffffffffffffffffffffffff16146131fc576040517f08c379a00000000000000000000000000000000000000000000000000000000081526004016131f39061560d565b60405180910390fd5b6000600b6000600a60008981526020019081526020016000206004015481526020019081526020016000209050600081600801805490501161323d57600080fd5b60018160090160016101000a81548160ff0219169083151502179055506001600a600088815260200190815260200160002060070160016101000a81548160ff021916908315150217905550600a600087815260200190815260200160002060040154600c60003373ffffffffffffffffffffffffffffffffffffffff1673ffffffffffffffffffffffffffffffffffffffff168152602001908152602001600020819055507f4907253c16b67be4ab4df7f71558cef45984b3164d402efae6fa078950ad6c94866040516133129190615468565b60405180910390a1505050505050565b600080600b60008481526020019081526020016000206002015490505b6000801b81141580156133525750838114155b1561337557600b600082815260200190815260200160002060020154905061333f565b83811491505092915050565b6000600b6000838152602001908152602001600020905060008090505b81600501805490508110156133dc576133cf8260050182815481106133bf57fe5b9060005260206000200154613381565b808060010191505061339e565b506000600b6000836002015481526020019081526020016000209050600080905060008090505b8260050180549050811015613448578483600501828154811061342257fe5b9060005260206000200154141561343b57809150613448565b8080600101915050613403565b50600082600501828154811061345a57fe5b9060005260206000200154905060006001846005018054905003905083600501818154811061348557fe5b906000526020600020015484600501848154811061349f57fe5b9060005260206000200181905550818460050182815481106134bd57fe5b9060005260206000200181905550836005018054809190600190036134e291906140b6565b507ff2d15c3b49f9f07eb8ecb0035497540f59692c74dfa155e59910f86cb21ea761866040516135129190615468565b60405180910390a1600b6000866000015481526020019081526020016000206000808201600090556001820160006101000a81549073ffffffffffffffffffffffffffffffffffffffff021916905560028201600090556003820160009055600482016000905560058201600061358991906140e2565b600682016000905560078201600090556008820160006135a99190614103565b6009820160006101000a81549060ff02191690556009820160016101000a81549060ff02191690555050600c60008660010160009054906101000a900473ffffffffffffffffffffffffffffffffffffffff1673ffffffffffffffffffffffffffffffffffffffff1673ffffffffffffffffffffffffffffffffffffffff16815260200190815260200160002060009055505050505050565b60003360011515600160008373ffffffffffffffffffffffffffffffffffffffff1673ffffffffffffffffffffffffffffffffffffffff16815260200190815260200160002060000160149054906101000a900460ff161515146136a557600080fd5b600060065442856040516020016136be939291906152e5565b604051602081830303815290604052805190602001209050806005600083815260200190815260200160002060000181905550836005600083815260200190815260200160002060010160006101000a81548173ffffffffffffffffffffffffffffffffffffffff021916908373ffffffffffffffffffffffffffffffffffffffff16021790555060016005600083815260200190815260200160002060040160006101000a81548160ff0219169083151502179055506006600081548092919060010191905055508092505050919050565b600080600e5442866040516020016137ab939291906153be565b604051602081830303815290604052805190602001209050600e6000815480929190600101919050555080600b60008381526020019081526020016000206000018190555083600b60008381526020019081526020016000206003018190555085600b600083815260200190815260200160002060010160006101000a81548173ffffffffffffffffffffffffffffffffffffffff021916908373ffffffffffffffffffffffffffffffffffffffff16021790555084600b60008381526020019081526020016000206002018190555060018301600b6000838152602001908152602001600020600401819055506001600b600083815260200190815260200160002060090160006101000a81548160ff0219169083151502179055506000600b600083815260200190815260200160002060090160016101000a81548160ff02191690831515021790555042600b600083815260200190815260200160002060060181905550620151804201600b6000838152602001908152602001600020600701819055507f222867d31636e90bc8dd2b88b87a437ad586737119e7fe5c082d3eb3d73b0da5816040516139619190615468565b60405180910390a180915050949350505050565b600080600090505b83518160ff161015613a1457600080905060008090505b84518160ff1610156139ed576139d6868460ff16815181106139b257fe5b6020026020010151868360ff16815181106139c957fe5b6020026020010151613a92565b156139e057600191505b8080600101915050613994565b50600015158115151415613a0657600092505050613a1a565b50808060010191505061397d565b50600190505b92915050565b6000600b6000848152602001908152602001600020905060008090505b81600501805490508160ff161015613a8257613a75826005018260ff1681548110613a6457fe5b906000526020600020015484613a20565b8080600101915050613a3d565b50613a8d8383613ac8565b505050565b6000613aa683600001518360000151613d8e565b8015613ac05750613abf83602001518360200151613d8e565b5b905092915050565b6000600b6000848152602001908152602001600020905060008090505b81600801805490508160ff161015613d885760008090505b8351811015613d7a57613c91836008018360ff1681548110613b1b57fe5b9060005260206000209060020201604051806040016040529081600082018054600181600116156101000203166002900480601f016020809104026020016040519081016040528092919081815260200182805460018160011615610100020316600290048015613bcd5780601f10613ba257610100808354040283529160200191613bcd565b820191906000526020600020905b815481529060010190602001808311613bb057829003601f168201915b50505050508152602001600182018054600181600116156101000203166002900480601f016020809104026020016040519081016040528092919081815260200182805460018160011615610100020316600290048015613c6f5780601f10613c4457610100808354040283529160200191613c6f565b820191906000526020600020905b815481529060010190602001808311613c5257829003601f168201915b505050505081525050858381518110613c8457fe5b6020026020010151613a92565b15613d6d57600060018460080180549050039050613cea846008018460ff1681548110613cba57fe5b9060005260206000209060020201856008018381548110613cd757fe5b9060005260206000209060020201613de7565b83600801805480919060019003613d019190614127565b507f7db1e5e5cbb7832adc462d9d569244f7262749160f99cca3403b5ab776ec250786868481518110613d3057fe5b602002602001015160000151878581518110613d4857fe5b602002602001015160200151604051613d63939291906154e3565b60405180910390a1505b8080600101915050613afd565b508080600101915050613ae5565b50505050565b600081604051602001613da191906152a1565b6040516020818303038152906040528051906020012083604051602001613dc891906152a1565b6040516020818303038152906040528051906020012014905092915050565b6000829050819250809150505050565b6040518060a0016040528060008019168152602001600073ffffffffffffffffffffffffffffffffffffffff16815260200160608152602001606081526020016000151581525090565b60405180610120016040528060008019168152602001600073ffffffffffffffffffffffffffffffffffffffff16815260200160008152602001600081526020016000801916815260200160008152602001600081526020016000151581526020016000151581525090565b828054600181600116156101000203166002900490600052602060002090601f016020900481019282601f10613eee57805160ff1916838001178555613f1c565b82800160010185558215613f1c579182015b82811115613f1b578251825591602001919060010190613f00565b5b509050613f299190614159565b5090565b828054600181600116156101000203166002900490600052602060002090601f016020900481019282601f10613f6e57805160ff1916838001178555613f9c565b82800160010185558215613f9c579182015b82811115613f9b578251825591602001919060010190613f80565b5b509050613fa99190614159565b5090565b60405180610140016040528060008019168152602001600073ffffffffffffffffffffffffffffffffffffffff168152602001600073ffffffffffffffffffffffffffffffffffffffff16815260200160008019168152602001600080191681526020016000815260200160008152602001600015158152602001600015158152602001606081525090565b60405180610160016040528060008019168152602001600073ffffffffffffffffffffffffffffffffffffffff168152602001600080191681526020016000801916815260200160008152602001606081526020016000815260200160008152602001606081526020016000151581526020016000151581525090565b8154818355818111156140dd578183600052602060002091820191016140dc919061417e565b5b505050565b5080546000825590600052602060002090810190614100919061417e565b50565b508054600082556002029060005260206000209081019061412491906141a3565b50565b8154818355818111156141545760020281600202836000526020600020918201910161415391906141a3565b5b505050565b61417b91905b8082111561417757600081600090555060010161415f565b5090565b90565b6141a091905b8082111561419c576000816000905550600101614184565b5090565b90565b6141df91905b808211156141db57600080820160006141c291906141e2565b6001820160006141d291906141e2565b506002016141a9565b5090565b90565b50805460018160011615610100020316600290046000825580601f106142085750614227565b601f0160209004906000526020600020908101906142269190614159565b5b50565b60008135905061423981615b69565b92915050565b600082601f83011261425057600080fd5b813561426361425e8261587c565b61584f565b9150818183526020840193506020810190508360005b838110156142a9578135860161428f8882614370565b845260208401935060208301925050600181019050614279565b5050505092915050565b6000813590506142c281615b80565b92915050565b600082601f8301126142d957600080fd5b81356142ec6142e7826158a4565b61584f565b9150808252602083016020830185838301111561430857600080fd5b614313838284615abf565b50505092915050565b600082601f83011261432d57600080fd5b813561434061433b826158d0565b61584f565b9150808252602083016020830185838301111561435c57600080fd5b614367838284615abf565b50505092915050565b60006040828403121561438257600080fd5b61438c604061584f565b9050600082013567ffffffffffffffff8111156143a857600080fd5b6143b4848285016142c8565b600083015250602082013567ffffffffffffffff8111156143d457600080fd5b6143e0848285016142c8565b60208301525092915050565b6000813590506143fb81615b97565b92915050565b60006020828403121561441357600080fd5b60006144218482850161422a565b91505092915050565b6000806040838503121561443d57600080fd5b600061444b8582860161422a565b925050602061445c858286016142b3565b9150509250929050565b60006020828403121561447857600080fd5b6000614486848285016142b3565b91505092915050565b600080604083850312156144a257600080fd5b60006144b0858286016142b3565b92505060206144c18582860161422a565b9150509250929050565b600080604083850312156144de57600080fd5b60006144ec858286016142b3565b925050602083013567ffffffffffffffff81111561450957600080fd5b6145158582860161423f565b9150509250929050565b60008060006060848603121561453457600080fd5b6000614542868287016142b3565b935050602084013567ffffffffffffffff81111561455f57600080fd5b61456b8682870161431c565b925050604084013567ffffffffffffffff81111561458857600080fd5b6145948682870161431c565b9150509250925092565b6000806000606084860312156145b357600080fd5b600084013567ffffffffffffffff8111156145cd57600080fd5b6145d98682870161431c565b93505060206145ea868287016143ec565b92505060406145fb868287016142b3565b9150509250925092565b60006146118383614660565b60208301905092915050565b600061462983836148a0565b60208301905092915050565b60006146418383615219565b905092915050565b61465a61465582615a5f565b615b13565b82525050565b61466981615a4d565b82525050565b61467881615a4d565b82525050565b61468f61468a82615a4d565b615b01565b82525050565b60006146a082615948565b6146aa81856159dc565b93506146b583615909565b8060005b838110156146e65781516146cd8882614605565b97506146d883615997565b9250506001810190506146b9565b5085935050505092915050565b60006146fe8261593d565b61470881856159cb565b9350614713836158fc565b8060005b8381101561474457815161472b8882614605565b97506147368361598a565b925050600181019050614717565b5085935050505092915050565b600061475c8261595e565b61476681856159fe565b935061477183615923565b8060005b838110156147a2578151614789888261461d565b9750614794836159b1565b925050600181019050614775565b5085935050505092915050565b60006147ba82615953565b6147c481856159ed565b93506147cf83615916565b8060005b838110156148005781516147e7888261461d565b97506147f2836159a4565b9250506001810190506147d3565b5085935050505092915050565b600061481882615969565b6148228185615a0f565b93508360208202850161483485615930565b8060005b8581101561487057848403895281516148518582614635565b945061485c836159be565b925060208a01995050600181019050614838565b50829750879550505050505092915050565b61488b81615a71565b82525050565b61489a81615a71565b82525050565b6148a981615a7d565b82525050565b6148b881615a7d565b82525050565b6148cf6148ca82615a7d565b615b25565b82525050565b60006148e08261597f565b6148ea8185615a31565b93506148fa818560208601615ace565b61490381615b4b565b840191505092915050565b60006149198261597f565b6149238185615a42565b9350614933818560208601615ace565b80840191505092915050565b600061494a82615974565b6149548185615a20565b9350614964818560208601615ace565b61496d81615b4b565b840191505092915050565b600061498382615974565b61498d8185615a31565b935061499d818560208601615ace565b6149a681615b4b565b840191505092915050565b60006149be600683615a42565b91507f65786973742e00000000000000000000000000000000000000000000000000006000830152600682019050919050565b60006149fe600283615a31565b91507f796f0000000000000000000000000000000000000000000000000000000000006000830152602082019050919050565b6000614a3e601f83615a31565b91507f44656c65676174696f6e207472656520697320696e697469616c697a65642e006000830152602082019050919050565b6000614a7e603283615a31565b91507f4f6e6c792064656c65676174696f6e20747265652073757065727669736f722060008301527f63616e2063616c6c2066756e6374696f6e2e00000000000000000000000000006020830152604082019050919050565b6000614ae4603283615a31565b91507f5468652070726f76696465642061646472657373206973206e6f74206120636f60008301527f6f7264696e61746f7220616464726573732e00000000000000000000000000006020830152604082019050919050565b6000614b4a601683615a31565b91507f456d7074792070726976696c6567652061727261792e000000000000000000006000830152602082019050919050565b6000614b8a602583615a31565b91507f43616e6e6f74207265766f6b65206e6f6e206578697374656e7420707269766960008301527f6c6567652e0000000000000000000000000000000000000000000000000000006020830152604082019050919050565b6000614bf0600383615a31565b91507f77616100000000000000000000000000000000000000000000000000000000006000830152602082019050919050565b6000614c30603883615a31565b91507f6f6e6c792064656c65676174652068696572617263686963616c20737570657260008301527f7669736f722063616e2063616c6c2066756e6374696f6e2e00000000000000006020830152604082019050919050565b6000614c96600683615a31565b91507f77616161616100000000000000000000000000000000000000000000000000006000830152602082019050919050565b6000614cd6602183615a31565b91507f4f6e6c792064656c656761746f722063616e2063616c6c2066756e6374696f6e60008301527f2e000000000000000000000000000000000000000000000000000000000000006020830152604082019050919050565b6000614d3c602083615a31565b91507f4f6e6c792064656c65676174652063616e2063616c6c2066756e6374696f6e2e6000830152602082019050919050565b6000614d7c601f83615a31565b91507f44656c65676174696f6e205472656520697320696e697469616c697a65642e006000830152602082019050919050565b6000614dbc600b83615a42565b91507f446f6d61696e20646f65730000000000000000000000000000000000000000006000830152600b82019050919050565b6000614dfc601f83615a31565b91507f44656c65676174696f6e207472656520646f6573206e6f742065786973742e006000830152602082019050919050565b6000614e3c602383615a31565b91507f44656c65676174696f6e2054726565206973206e6f6e20696e697469616c697a60008301527f65642e00000000000000000000000000000000000000000000000000000000006020830152604082019050919050565b6000614ea2601e83615a31565b91507f44656c6567617465204e6f6465206973206e6f74206578697374656e742e00006000830152602082019050919050565b6000614ee2600283615a31565b91507f626f0000000000000000000000000000000000000000000000000000000000006000830152602082019050919050565b600061014083016000830151614f2e60008601826148a0565b506020830151614f416020860182614660565b506040830151614f546040860182614660565b506060830151614f6760608601826148a0565b506080830151614f7a60808601826148a0565b5060a0830151614f8d60a086018261526c565b5060c0830151614fa060c086018261526c565b5060e0830151614fb360e0860182614882565b50610100830151614fc8610100860182614882565b50610120830151848203610120860152614fe2828261480d565b9150508091505092915050565b60006101608301600083015161500860008601826148a0565b50602083015161501b6020860182614660565b50604083015161502e60408601826148a0565b50606083015161504160608601826148a0565b506080830151615054608086018261526c565b5060a083015184820360a086015261506c82826147af565b91505060c083015161508160c086018261526c565b5060e083015161509460e086018261526c565b506101008301518482036101008601526150ae828261480d565b9150506101208301516150c5610120860182614882565b506101408301516150da610140860182614882565b508091505092915050565b610120820160008201516150fc60008501826148a0565b50602082015161510f6020850182614660565b506040820151615122604085018261526c565b506060820151615135606085018261526c565b50608082015161514860808501826148a0565b5060a082015161515b60a085018261526c565b5060c082015161516e60c085018261526c565b5060e082015161518160e0850182614882565b50610100820151615196610100850182614882565b50505050565b600060a0830160008301516151b460008601826148a0565b5060208301516151c76020860182614660565b50604083015184820360408601526151df82826147af565b915050606083015184820360608601526151f982826146f3565b915050608083015161520e6080860182614882565b508091505092915050565b60006040830160008301518482036000860152615236828261493f565b91505060208301518482036020860152615250828261493f565b9150508091505092915050565b61526681615a87565b82525050565b61527581615ab5565b82525050565b61528481615ab5565b82525050565b61529b61529682615ab5565b615b41565b82525050565b60006152ad828461490e565b915081905092915050565b60006152c382614daf565b91506152cf828461490e565b91506152da826149b1565b915081905092915050565b60006152f1828661528a565b602082019150615301828561528a565b602082019150615311828461467e565b601482019150819050949350505050565b600061532e828661528a565b60208201915061533e828561528a565b60208201915061534e8284614649565b601482019150819050949350505050565b600061536b828861528a565b60208201915061537b828761528a565b60208201915061538b828661467e565b60148201915061539b8285614649565b6014820191506153ab82846148be565b6020820191508190509695505050505050565b60006153ca828661528a565b6020820191506153da828561528a565b6020820191506153ea82846148be565b602082019150819050949350505050565b6000604082019050615410600083018561466f565b61541d60208301846148af565b9392505050565b6000602082019050818103600083015261543e8184614695565b905092915050565b600060208201905081810360008301526154608184614751565b905092915050565b600060208201905061547d60008301846148af565b92915050565b600060608201905061549860008301866148af565b6154a5602083018561466f565b6154b26040830184614891565b949350505050565b60006040820190506154cf60008301856148af565b6154dc60208301846148af565b9392505050565b60006060820190506154f860008301866148af565b818103602083015261550a8185614978565b9050818103604083015261551e8184614978565b9050949350505050565b600060a08201905061553d60008301886148af565b818103602083015261554f8187614978565b905061555e604083018661525d565b61556b60608301856148af565b6155786080830184614891565b9695505050505050565b600060408201905061559760008301856148af565b6155a4602083018461527b565b9392505050565b600060208201905081810360008301526155c581846148d5565b905092915050565b600060208201905081810360008301526155e6816149f1565b9050919050565b6000602082019050818103600083015261560681614a31565b9050919050565b6000602082019050818103600083015261562681614a71565b9050919050565b6000602082019050818103600083015261564681614ad7565b9050919050565b6000602082019050818103600083015261566681614b3d565b9050919050565b6000602082019050818103600083015261568681614b7d565b9050919050565b600060208201905081810360008301526156a681614be3565b9050919050565b600060208201905081810360008301526156c681614c23565b9050919050565b600060208201905081810360008301526156e681614c89565b9050919050565b6000602082019050818103600083015261570681614cc9565b9050919050565b6000602082019050818103600083015261572681614d2f565b9050919050565b6000602082019050818103600083015261574681614d6f565b9050919050565b6000602082019050818103600083015261576681614def565b9050919050565b6000602082019050818103600083015261578681614e2f565b9050919050565b600060208201905081810360008301526157a681614e95565b9050919050565b600060208201905081810360008301526157c681614ed5565b9050919050565b600060208201905081810360008301526157e78184614f15565b905092915050565b600060208201905081810360008301526158098184614fef565b905092915050565b60006101208201905061582760008301846150e5565b92915050565b60006020820190508181036000830152615847818461519c565b905092915050565b6000604051905081810181811067ffffffffffffffff8211171561587257600080fd5b8060405250919050565b600067ffffffffffffffff82111561589357600080fd5b602082029050602081019050919050565b600067ffffffffffffffff8211156158bb57600080fd5b601f19601f8301169050602081019050919050565b600067ffffffffffffffff8211156158e757600080fd5b601f19601f8301169050602081019050919050565b6000602082019050919050565b6000602082019050919050565b6000602082019050919050565b6000602082019050919050565b6000602082019050919050565b600081519050919050565b600081519050919050565b600081519050919050565b600081519050919050565b600081519050919050565b600081519050919050565b600081519050919050565b6000602082019050919050565b6000602082019050919050565b6000602082019050919050565b6000602082019050919050565b6000602082019050919050565b600082825260208201905092915050565b600082825260208201905092915050565b600082825260208201905092915050565b600082825260208201905092915050565b600082825260208201905092915050565b600082825260208201905092915050565b600082825260208201905092915050565b600081905092915050565b6000615a5882615a95565b9050919050565b6000615a6a82615a95565b9050919050565b60008115159050919050565b6000819050919050565b600061ffff82169050919050565b600073ffffffffffffffffffffffffffffffffffffffff82169050919050565b6000819050919050565b82818337600083830152505050565b60005b83811015615aec578082015181840152602081019050615ad1565b83811115615afb576000848401525b50505050565b6000615b0c82615b2f565b9050919050565b6000615b1e82615b2f565b9050919050565b6000819050919050565b6000615b3a82615b5c565b9050919050565b6000819050919050565b6000601f19601f8301169050919050565b60008160601b9050919050565b615b7281615a4d565b8114615b7d57600080fd5b50565b615b8981615a7d565b8114615b9457600080fd5b50565b615ba081615a87565b8114615bab57600080fd5b5056fea265627a7a72305820d8f0fae089be5069fec77525f411a88624c5ac0340d267ce9a4b1d06676b974a6c6578706572696d656e74616cf50037",
  "source": "pragma solidity 0.5.8;\npragma experimental ABIEncoderV2;\n\nimport \"./CapabilityTokens.sol\";\n\ncontract DelegationCertificates is CapabilityTokens {\n\n    uint8 constant private DELEGATION_TREE_MAX_DEPTH = 16;\n    uint8 constant private DELEGATION_TREE_MAX_WIDTH = 16;\n    uint constant private DELEGATION_CERTIFICATE_EXPIRATION_TIME = 1 days;\n\n    mapping (bytes32 => DelegationTree) private _delegationTrees;\n    mapping (bytes32 => DelegateNode) private _delegateNodes;\n    mapping (address => bytes32) private _delegateAddressToDelegateNodeAddress;\n\n    uint private _delegationTreeNonce = 0;\n    uint private _delegateNodeNonce = 0;\n\n    event DelegationTreeCreated(bytes32 delegationTreeAddress);\n    event DelegationTreeInitialized(bytes32 delegationTreeAddress);\n    event PrivilegeAddedToDelegateNode(bytes32 delegateNodeAddress, uint privilegeIndex);\n    event DelegateNodeCreated(bytes32 delegateNodeAddress);\n    event DelegationCertificateIssued(bytes32 delegateNodeAddress);\n    event DelegationCertificateRevoked(bytes32 delegateNodeAddress);\n    event DelegationCertificatePrivilegeRevoked(bytes32 delegateNodeAddress, string httpAction, string resourceUrlRegex);\n\n    modifier onlyDelegationTreeSupervisor(bytes32 delegationTreeAddress, address supervisorAddress) {\n        require(_delegationTrees[delegationTreeAddress].supervisorAddress == supervisorAddress, 'Only delegation tree supervisor can call function.');\n        _;\n    }\n\n    modifier onlyDelegationCertificateSubject(bytes32 delegateNodeAddress, address delegateAddress) {\n        require(delegateAddress == _delegateNodes[delegateNodeAddress].subjectAddress, 'Only delegation certificate subject can call functon.');\n        _;\n    }\n\n    modifier onlyDelegateHierarchicalSupervisor(bytes32 delegateNodeAddress, address hierarchicalSupervisorAddress) {\n        require(\n            isAncestor(_delegateAddressToDelegateNodeAddress[hierarchicalSupervisorAddress], delegateNodeAddress),\n            'only delegate hierarchical supervisor can call function.'\n        );\n        _;\n    }\n\n    modifier onlyDelegate(address delegateAddress) {\n        require(_delegateNodes[_delegateAddressToDelegateNodeAddress[delegateAddress]].isExistent == true, 'Only delegate can call function.');\n        _;\n    }\n\n    modifier onlyDelegator(bytes32 delegateNodeAddress, address delegatorAddress) {\n        require(\n            _delegateNodes[_delegateAddressToDelegateNodeAddress[delegatorAddress]].subjectAddress == delegatorAddress,\n            'Only delegator can call function.'\n        );\n        _;\n    }\n\n    modifier isDelegationTreeExistent(bytes32 delegationTreeAddress) {\n        require(_delegationTrees[delegationTreeAddress].isExistent == true, 'Delegation tree does not exist.');\n        _;\n    }\n\n    modifier isDelegationTreeNonExistent(bytes32 delegationTreeAddress) {\n        require(_delegationTrees[delegationTreeAddress].isExistent == false, 'Delegation tree does exist.');\n        _;\n    }\n\n    modifier isDelegationTreeInitialized(bytes32 delegationTreeAddress) {\n        require(_delegationTrees[delegationTreeAddress].isInitialized == true, 'Delegation tree is not initialized.');\n        _;\n    }\n\n    modifier isDelegationTreeNonInitialized(bytes32 delegationTreeAddress) {\n        require(_delegationTrees[delegationTreeAddress].isInitialized == false, 'Delegation tree is initialized.');\n        _;\n    }\n\n    modifier isDelegateNodeExistent(bytes32 delegateNodeAddress) {\n        require(_delegateNodes[delegateNodeAddress].isExistent == true, 'Delegate Node is not existent.');\n        _;\n    }\n\n    modifier isDelegateNodeNonExistent(bytes32 delegateNodeAddress) {\n        require(_delegateNodes[delegateNodeAddress].isExistent == false, 'Delegate Node is existent.');\n        _;\n    }\n\n    modifier isDelegateNodeInitialized(bytes32 delegateNodeAddress) {\n        require(_delegateNodes[delegateNodeAddress].isInitialized == true, 'Delegation Tree is non initialized.');\n        _;\n    }\n\n    modifier isDelegateNodeNonInitialized(bytes32 delegateNodeAddress) {\n        require(_delegateNodes[delegateNodeAddress].isInitialized == false, 'Delegation Tree is initialized.');\n        _;\n    }\n\n    struct DelegateNode {\n        bytes32 nodeAddress;\n        address subjectAddress;\n        bytes32 parentNodeAddress;\n        bytes32 treeAddress;\n        uint currentDepth;\n        bytes32[] childrenNodesAddresses;\n        uint issuingTimestamp;\n        uint expirationTimestamp;\n        Privilege[] privileges;\n        bool isExistent;\n        bool isInitialized;\n    }\n\n    struct DelegationTree {\n        bytes32 treeAddress;\n        address supervisorAddress;\n        uint maximumDepth;\n        uint maximumWidth;\n        bytes32 rootNodeAddress;\n        uint issuingTimestamp;\n        uint expirationTimestamp;\n        bool isExistent;\n        bool isInitialized;\n    }\n\n    function getDelegationTree(bytes32 delegationTreeAddress) public view returns (DelegationTree memory) {\n        return _delegationTrees[delegationTreeAddress];\n    }\n\n    function getDelegateNodeAddress(address delegateAddress) public view returns (bytes32) {\n        return _delegateAddressToDelegateNodeAddress[delegateAddress];\n    }\n\n    function getDelegateNode(bytes32 delegateNodeAddress) public view returns (DelegateNode memory) {\n        return _delegateNodes[delegateNodeAddress];\n    }\n\n    function createDelegationTree() public onlyCoordinator(msg.sender) {\n        bytes32 delegationTreeAddress = keccak256(abi.encodePacked(_delegationTreeNonce, now, msg.sender));\n        _delegationTrees[delegationTreeAddress].treeAddress = delegationTreeAddress;\n        _delegationTrees[delegationTreeAddress].supervisorAddress = msg.sender;\n        _delegationTrees[delegationTreeAddress].maximumDepth = DELEGATION_TREE_MAX_DEPTH;\n        _delegationTrees[delegationTreeAddress].maximumWidth = DELEGATION_TREE_MAX_WIDTH;\n        _delegationTrees[delegationTreeAddress].isExistent = true;\n        _delegationTrees[delegationTreeAddress].isInitialized = false;\n        _delegationTreeNonce++;\n        bytes32 rootNodeAddress = createLeafDelegateNode(msg.sender, bytes32(0), delegationTreeAddress, 0);\n        _delegationTrees[delegationTreeAddress].rootNodeAddress = rootNodeAddress;\n        emit DelegationTreeCreated(delegationTreeAddress);\n    }\n\n    function addPrivilegeToRootNode(\n        bytes32 delegationTreeAddress,\n        string memory httpAction,\n        string memory resourceUrlRegex\n        )\n        public\n        isDelegationTreeExistent(delegationTreeAddress)\n        isDelegationTreeNonInitialized(delegationTreeAddress)\n        onlyDelegationTreeSupervisor(delegationTreeAddress, msg.sender) {\n        DelegateNode storage rootNode = _delegateNodes[_delegationTrees[delegationTreeAddress].rootNodeAddress];\n        uint privilegeIndex = rootNode.privileges.push(Privilege(httpAction, resourceUrlRegex)) - 1;\n        emit PrivilegeAddedToDelegateNode(rootNode.nodeAddress, privilegeIndex);\n    }\n\n    function initDelegationTree(\n        bytes32 delegationTreeAddress\n        )\n        public\n        isDelegationTreeExistent(delegationTreeAddress)\n        isDelegationTreeNonInitialized(delegationTreeAddress)\n        onlyDelegationTreeSupervisor(delegationTreeAddress, msg.sender) {\n        DelegateNode storage rootNode = _delegateNodes[_delegationTrees[delegationTreeAddress].rootNodeAddress];\n        require(rootNode.privileges.length > 0);\n        rootNode.isInitialized = true;\n        _delegationTrees[delegationTreeAddress].isInitialized = true;\n        _delegateAddressToDelegateNodeAddress[msg.sender] = _delegationTrees[delegationTreeAddress].rootNodeAddress;\n        emit DelegationTreeInitialized(delegationTreeAddress);\n    }\n\n    function createDelegateNode(\n        bytes32 delegatorNodeAddress,\n        address subjectAddress\n        )\n        public\n        isDelegateNodeExistent(delegatorNodeAddress)\n        onlyDelegate(msg.sender) {\n        DelegateNode storage delegatorNode = _delegateNodes[delegatorNodeAddress];\n        require(delegatorNode.currentDepth < _delegationTrees[delegatorNode.treeAddress].maximumDepth);\n        require(delegatorNode.childrenNodesAddresses.length < _delegationTrees[delegatorNode.treeAddress].maximumWidth);\n        createLeafDelegateNode(subjectAddress, delegatorNodeAddress, delegatorNode.treeAddress, delegatorNode.currentDepth);\n    }\n\n    function createLeafDelegateNode(\n        address subjectAddress,\n        bytes32 parentNodeAddress,\n        bytes32 treeAddress,\n        uint parentNodeDepth\n        )\n        internal\n        returns (bytes32) {\n        bytes32 subjectNodeAddress = keccak256(abi.encodePacked(_delegateNodeNonce, now, parentNodeAddress));\n        _delegateNodeNonce++;\n        _delegateNodes[subjectNodeAddress].nodeAddress = subjectNodeAddress;\n        _delegateNodes[subjectNodeAddress].treeAddress = treeAddress;\n        _delegateNodes[subjectNodeAddress].subjectAddress = subjectAddress;\n        _delegateNodes[subjectNodeAddress].parentNodeAddress = parentNodeAddress;\n        _delegateNodes[subjectNodeAddress].currentDepth = parentNodeDepth + 1;\n        _delegateNodes[subjectNodeAddress].isExistent = true;\n        _delegateNodes[subjectNodeAddress].isInitialized = false;\n        _delegateNodes[subjectNodeAddress].issuingTimestamp = now;\n        _delegateNodes[subjectNodeAddress].expirationTimestamp = now + DELEGATION_CERTIFICATE_EXPIRATION_TIME;\n        emit DelegateNodeCreated(subjectNodeAddress);\n        return subjectNodeAddress;\n    }\n\n    function addPrivilegeToDelegateNode(\n        bytes32 delegateNodeAddress,\n        string memory httpAction,\n        string memory resourceUrlRegex\n        ) public\n        isDelegateNodeExistent(delegateNodeAddress)\n        isDelegateNodeNonInitialized(delegateNodeAddress)\n        onlyDelegator(delegateNodeAddress, msg.sender) {\n        require(_delegateNodes[delegateNodeAddress].isExistent == true);\n        require(_delegateNodes[delegateNodeAddress].isInitialized == false);\n        uint privilegeIndex = _delegateNodes[delegateNodeAddress].privileges.push(Privilege(httpAction, resourceUrlRegex)) - 1;\n        emit PrivilegeAddedToDelegateNode(delegateNodeAddress, privilegeIndex);\n    }\n\n    function issueDelegationCertificate(\n        bytes32 delegateNodeAddress\n        )\n        public\n        isDelegateNodeExistent(delegateNodeAddress)\n        isDelegateNodeNonInitialized(delegateNodeAddress)\n        onlyDelegator(delegateNodeAddress, msg.sender) {\n        DelegateNode storage subjectNode = _delegateNodes[delegateNodeAddress];\n        DelegateNode storage delegatorNode = _delegateNodes[subjectNode.parentNodeAddress];\n        require(delegatorNode.childrenNodesAddresses.length < _delegationTrees[delegatorNode.treeAddress].maximumWidth);\n        delegatorNode.childrenNodesAddresses.push(delegateNodeAddress);\n        subjectNode.isInitialized = true;\n        subjectNode.issuingTimestamp = now;\n        subjectNode.expirationTimestamp = now + DELEGATION_CERTIFICATE_EXPIRATION_TIME;\n        _delegateAddressToDelegateNodeAddress[subjectNode.subjectAddress] = subjectNode.nodeAddress;\n        emit DelegationCertificateIssued(delegateNodeAddress);\n    }\n\n    function areEqualStrings(string memory s1, string memory s2) private pure returns (bool) {\n      return keccak256(abi.encodePacked(s1)) == keccak256(abi.encodePacked(s2));\n    }\n\n    function areSamePrivileges(Privilege memory p1, Privilege memory p2) internal pure returns (bool) {\n      return areEqualStrings(p1.httpAction, p2.httpAction) && areEqualStrings(p1.resourceUrlRegex, p2.resourceUrlRegex);\n    }\n\n    function arePrivilegesSubsetOf(Privilege[] memory _privileges1, Privilege[] memory _privileges2) private pure returns (bool) {\n        for (uint8 i = 0; i < _privileges1.length; i++) {\n          bool exist = false;\n          for (uint8 j = 0; j < _privileges2.length; j++) {\n              if (areSamePrivileges(_privileges1[i], _privileges2[j])) {\n                exist = true;\n              }\n          }\n          if (exist == false) {\n            return false;\n          }\n        }\n        return true;\n    }\n\n\n    function isAncestor(bytes32 hierarchicalSupervisorNodeAddress, bytes32 delegateNodeAddress) internal view returns (bool) {\n        bytes32 currentDelegatorNodeAddress = _delegateNodes[delegateNodeAddress].parentNodeAddress;\n        while(currentDelegatorNodeAddress != bytes32(0) && currentDelegatorNodeAddress != hierarchicalSupervisorNodeAddress) {\n            currentDelegatorNodeAddress = _delegateNodes[currentDelegatorNodeAddress].parentNodeAddress;\n        }\n        return currentDelegatorNodeAddress == hierarchicalSupervisorNodeAddress;\n    }\n\n    function revokeDelegationCertificate(\n        bytes32 delegateNodeAddress\n        )\n        public\n        isDelegateNodeExistent(delegateNodeAddress)\n        isDelegateNodeInitialized(delegateNodeAddress)\n        onlyDelegateHierarchicalSupervisor(delegateNodeAddress, msg.sender) {\n        revokeDelegationCertificateHelper(delegateNodeAddress);\n    }\n\n    function revokeDelegationCertificateHelper(\n        bytes32 delegateNodeAddress\n        ) internal {\n        DelegateNode storage delegateNode = _delegateNodes[delegateNodeAddress];\n        for (uint i = 0; i < delegateNode.childrenNodesAddresses.length; i++) {\n            revokeDelegationCertificateHelper(delegateNode.childrenNodesAddresses[i]);\n        }\n        DelegateNode storage parentDelegateNode = _delegateNodes[delegateNode.parentNodeAddress];\n        uint childIndex = 0;\n        for (uint i = 0; i < parentDelegateNode.childrenNodesAddresses.length; i++) {\n            if (parentDelegateNode.childrenNodesAddresses[i] == delegateNodeAddress) {\n                childIndex = i;\n                break;\n            }\n        }\n        bytes32 tempAddress = parentDelegateNode.childrenNodesAddresses[childIndex];\n        uint lastIndex = parentDelegateNode.childrenNodesAddresses.length - 1;\n        parentDelegateNode.childrenNodesAddresses[childIndex] = parentDelegateNode.childrenNodesAddresses[lastIndex];\n        parentDelegateNode.childrenNodesAddresses[lastIndex] = tempAddress;\n        parentDelegateNode.childrenNodesAddresses.length--;\n        emit DelegationCertificateRevoked(delegateNodeAddress);\n        delete(_delegateNodes[delegateNode.nodeAddress]);\n        delete(_delegateAddressToDelegateNodeAddress[delegateNode.subjectAddress]);\n    }\n\n    function swapPrivileges(Privilege storage p1, Privilege storage p2) pure private {\n        Privilege storage p = p1;\n        p1 = p2;\n        p2 = p;\n    }\n\n    function revokeDelegateNodePrivileges(bytes32 delegateNodeAddress, Privilege[] memory privileges) internal {\n        DelegateNode storage delegateNode = _delegateNodes[delegateNodeAddress];\n        for(uint8 i = 0; i < delegateNode.privileges.length; i++) {\n          for(uint j = 0; j < privileges.length; j++) {\n            if(areSamePrivileges(delegateNode.privileges[i], privileges[j])) {\n                uint lastPrivilegeIndex = delegateNode.privileges.length - 1;\n                swapPrivileges(delegateNode.privileges[i], delegateNode.privileges[lastPrivilegeIndex]);\n                delegateNode.privileges.length--;\n                emit DelegationCertificatePrivilegeRevoked(delegateNodeAddress, privileges[j].httpAction, privileges[j].resourceUrlRegex);\n            }\n          }\n        }\n    }\n\n    function revokeDelegationCertificatePrivilegesHelper(bytes32 delegateNodeAddress, Privilege[] memory privileges) internal {\n        DelegateNode storage delegateNode = _delegateNodes[delegateNodeAddress];\n        for(uint8 i = 0; i < delegateNode.childrenNodesAddresses.length; i++) {\n            revokeDelegationCertificatePrivilegesHelper(delegateNode.childrenNodesAddresses[i], privileges);\n        }\n        revokeDelegateNodePrivileges(delegateNodeAddress, privileges);\n    }\n\n    function revokeDelegationCertificatePrivileges(\n        bytes32 delegateNodeAddress,\n        Privilege[] memory privileges\n        )\n        public\n        isDelegateNodeExistent(delegateNodeAddress)\n        isDelegateNodeInitialized(delegateNodeAddress)\n        onlyDelegateHierarchicalSupervisor(delegateNodeAddress, msg.sender) {\n        require(privileges.length > 0, 'Empty privilege array.');\n        require(arePrivilegesSubsetOf(privileges, _delegateNodes[delegateNodeAddress].privileges), 'Cannot revoke non existent privilege.');\n        revokeDelegationCertificatePrivilegesHelper(delegateNodeAddress, privileges);\n    }\n}\n",
  "sourcePath": "/home/ayedm/WebstormProjects/BlendCAC/eth/dapp/contracts/DelegationCertificates.sol",
  "compiler": {
    "name": "solc",
    "version": "0.5.8+commit.23d335f2.Emscripten.clang"
  },
  "schemaVersion": "3.0.11",
  "updatedAt": "2019-08-02T05:48:11.637Z",
  "devdoc": {
    "methods": {}
  },
  "userdoc": {
    "methods": {}
  }
}